{
  "contractName": "MultisigWallet",
  "abi": [
    {
      "inputs": [],
      "payable": false,
      "stateMutability": "nonpayable",
      "type": "constructor"
    },
    {
      "anonymous": false,
      "inputs": [
        {
          "indexed": true,
          "internalType": "address",
          "name": "oldOwner",
          "type": "address"
        },
        {
          "indexed": true,
          "internalType": "address",
          "name": "newOwner",
          "type": "address"
        }
      ],
      "name": "OwnerSet",
      "type": "event"
    },
    {
      "anonymous": false,
      "inputs": [
        {
          "indexed": false,
          "internalType": "address",
          "name": "owner",
          "type": "address"
        },
        {
          "indexed": false,
          "internalType": "string",
          "name": "message",
          "type": "string"
        }
      ],
      "name": "addOwnerComplete",
      "type": "event"
    },
    {
      "anonymous": false,
      "inputs": [
        {
          "indexed": false,
          "internalType": "uint256",
          "name": "amount",
          "type": "uint256"
        },
        {
          "indexed": true,
          "internalType": "address",
          "name": "depositedTo",
          "type": "address"
        }
      ],
      "name": "depositComplete",
      "type": "event"
    },
    {
      "anonymous": false,
      "inputs": [
        {
          "indexed": false,
          "internalType": "string",
          "name": "message",
          "type": "string"
        }
      ],
      "name": "moreSignaturesRequired",
      "type": "event"
    },
    {
      "anonymous": false,
      "inputs": [
        {
          "indexed": false,
          "internalType": "uint256",
          "name": "transferId",
          "type": "uint256"
        },
        {
          "indexed": false,
          "internalType": "bool",
          "name": "approved",
          "type": "bool"
        }
      ],
      "name": "requestApproved",
      "type": "event"
    },
    {
      "anonymous": false,
      "inputs": [
        {
          "indexed": true,
          "internalType": "address",
          "name": "from",
          "type": "address"
        },
        {
          "indexed": true,
          "internalType": "address",
          "name": "to",
          "type": "address"
        },
        {
          "indexed": false,
          "internalType": "uint256",
          "name": "amount",
          "type": "uint256"
        }
      ],
      "name": "transferComplete",
      "type": "event"
    },
    {
      "anonymous": false,
      "inputs": [
        {
          "indexed": false,
          "internalType": "address",
          "name": "to",
          "type": "address"
        },
        {
          "indexed": false,
          "internalType": "uint256",
          "name": "amount",
          "type": "uint256"
        },
        {
          "indexed": false,
          "internalType": "string",
          "name": "message",
          "type": "string"
        }
      ],
      "name": "transferRequestComplete",
      "type": "event"
    },
    {
      "constant": true,
      "inputs": [],
      "name": "addressLimit",
      "outputs": [
        {
          "internalType": "uint256",
          "name": "",
          "type": "uint256"
        }
      ],
      "payable": false,
      "stateMutability": "view",
      "type": "function"
    },
    {
      "constant": true,
      "inputs": [
        {
          "internalType": "address",
          "name": "",
          "type": "address"
        },
        {
          "internalType": "uint256",
          "name": "",
          "type": "uint256"
        }
      ],
      "name": "approvals",
      "outputs": [
        {
          "internalType": "bool",
          "name": "",
          "type": "bool"
        }
      ],
      "payable": false,
      "stateMutability": "view",
      "type": "function"
    },
    {
      "constant": false,
      "inputs": [
        {
          "internalType": "address",
          "name": "newOwner",
          "type": "address"
        }
      ],
      "name": "changeOwner",
      "outputs": [],
      "payable": false,
      "stateMutability": "nonpayable",
      "type": "function"
    },
    {
      "constant": true,
      "inputs": [],
      "name": "contractBalance",
      "outputs": [
        {
          "internalType": "uint256",
          "name": "",
          "type": "uint256"
        }
      ],
      "payable": false,
      "stateMutability": "view",
      "type": "function"
    },
    {
      "constant": true,
      "inputs": [],
      "name": "getOwner",
      "outputs": [
        {
          "internalType": "address",
          "name": "",
          "type": "address"
        }
      ],
      "payable": false,
      "stateMutability": "view",
      "type": "function"
    },
    {
      "constant": true,
      "inputs": [],
      "name": "getOwners",
      "outputs": [
        {
          "internalType": "address[]",
          "name": "",
          "type": "address[]"
        }
      ],
      "payable": false,
      "stateMutability": "view",
      "type": "function"
    },
    {
      "constant": true,
      "inputs": [
        {
          "internalType": "uint256",
          "name": "",
          "type": "uint256"
        }
      ],
      "name": "owners",
      "outputs": [
        {
          "internalType": "address",
          "name": "",
          "type": "address"
        }
      ],
      "payable": false,
      "stateMutability": "view",
      "type": "function"
    },
    {
      "constant": true,
      "inputs": [],
      "name": "signaturesRequired",
      "outputs": [
        {
          "internalType": "uint256",
          "name": "",
          "type": "uint256"
        }
      ],
      "payable": false,
      "stateMutability": "view",
      "type": "function"
    },
    {
      "constant": true,
      "inputs": [
        {
          "internalType": "uint256",
          "name": "",
          "type": "uint256"
        }
      ],
      "name": "transferRequests",
      "outputs": [
        {
          "internalType": "uint256",
          "name": "id",
          "type": "uint256"
        },
        {
          "internalType": "address payable",
          "name": "recipient",
          "type": "address"
        },
        {
          "internalType": "uint256",
          "name": "amount",
          "type": "uint256"
        },
        {
          "internalType": "uint256",
          "name": "approvalCount",
          "type": "uint256"
        }
      ],
      "payable": false,
      "stateMutability": "view",
      "type": "function"
    },
    {
      "constant": false,
      "inputs": [
        {
          "internalType": "address",
          "name": "newOwner",
          "type": "address"
        }
      ],
      "name": "addOwner",
      "outputs": [],
      "payable": false,
      "stateMutability": "nonpayable",
      "type": "function"
    },
    {
      "constant": false,
      "inputs": [
        {
          "internalType": "uint256",
          "name": "index",
          "type": "uint256"
        }
      ],
      "name": "deleteOwner",
      "outputs": [],
      "payable": false,
      "stateMutability": "nonpayable",
      "type": "function"
    },
    {
      "constant": false,
      "inputs": [],
      "name": "depositToContract",
      "outputs": [],
      "payable": true,
      "stateMutability": "payable",
      "type": "function"
    },
    {
      "constant": false,
      "inputs": [
        {
          "internalType": "address payable",
          "name": "recipient",
          "type": "address"
        },
        {
          "internalType": "uint256",
          "name": "amount",
          "type": "uint256"
        }
      ],
      "name": "requestTransfer",
      "outputs": [],
      "payable": false,
      "stateMutability": "nonpayable",
      "type": "function"
    },
    {
      "constant": false,
      "inputs": [
        {
          "internalType": "uint256",
          "name": "transferId",
          "type": "uint256"
        },
        {
          "internalType": "bool",
          "name": "approved",
          "type": "bool"
        }
      ],
      "name": "approveRequest",
      "outputs": [],
      "payable": false,
      "stateMutability": "nonpayable",
      "type": "function"
    },
    {
      "constant": true,
      "inputs": [],
      "name": "getTransferRequests",
      "outputs": [
        {
          "components": [
            {
              "internalType": "uint256",
              "name": "id",
              "type": "uint256"
            },
            {
              "internalType": "address payable",
              "name": "recipient",
              "type": "address"
            },
            {
              "internalType": "uint256",
              "name": "amount",
              "type": "uint256"
            },
            {
              "internalType": "uint256",
              "name": "approvalCount",
              "type": "uint256"
            }
          ],
          "internalType": "struct MultisigWallet.Transfer[]",
          "name": "",
          "type": "tuple[]"
        }
      ],
      "payable": false,
      "stateMutability": "view",
      "type": "function"
    },
    {
      "constant": true,
      "inputs": [
        {
          "internalType": "address",
          "name": "account",
          "type": "address"
        },
        {
          "internalType": "uint256",
          "name": "transferId",
          "type": "uint256"
        }
      ],
      "name": "getApproval",
      "outputs": [
        {
          "internalType": "bool",
          "name": "",
          "type": "bool"
        }
      ],
      "payable": false,
      "stateMutability": "view",
      "type": "function"
    }
  ],
  "bytecode": "0x6080604052600060045534801561001557600080fd5b50336000806101000a81548173ffffffffffffffffffffffffffffffffffffffff021916908373ffffffffffffffffffffffffffffffffffffffff1602179055506000809054906101000a900473ffffffffffffffffffffffffffffffffffffffff1673ffffffffffffffffffffffffffffffffffffffff16600073ffffffffffffffffffffffffffffffffffffffff167f342827c97908e5e2f71151c08502a66d44b6f758e3ac2f1de95f02eb95f0a73560405160405180910390a360013390806001815401808255809150509060018203906000526020600020016000909192909190916101000a81548173ffffffffffffffffffffffffffffffffffffffff021916908373ffffffffffffffffffffffffffffffffffffffff1602179055505060036002819055506002600381905550611a32806101576000396000f3fe6080604052600436106100f35760003560e01c8063a04ef1451161008a578063c57d3d9e11610059578063c57d3d9e14610319578063c8f781c214610356578063ce757d2914610360578063ffabc6731461038b576100f3565b8063a04ef14514610271578063a0e67e2b1461029c578063a6f9dae1146102c7578063aa5fc794146102f0576100f3565b8063767e0b9c116100c6578063767e0b9c146101c9578063780dd0cf146101f2578063893d20e81461021b5780638b7afe2e14610246576100f3565b8063025e7c27146100f857806303486c4014610135578063113f792e146101755780637065cb48146101a0575b600080fd5b34801561010457600080fd5b5061011f600480360361011a919081019061120f565b6103c8565b60405161012c9190611653565b60405180910390f35b34801561014157600080fd5b5061015c6004803603610157919081019061120f565b610404565b60405161016c9493929190611812565b60405180910390f35b34801561018157600080fd5b5061018a610461565b60405161019791906117f7565b60405180910390f35b3480156101ac57600080fd5b506101c760048036036101c2919081019061116e565b610467565b005b3480156101d557600080fd5b506101f060048036036101eb9190810190611238565b6106a6565b005b3480156101fe57600080fd5b506102196004803603610214919081019061120f565b61097e565b005b34801561022757600080fd5b50610230610a85565b60405161023d9190611653565b60405180910390f35b34801561025257600080fd5b5061025b610aae565b60405161026891906117f7565b60405180910390f35b34801561027d57600080fd5b50610286610ab4565b60405161029391906116fa565b60405180910390f35b3480156102a857600080fd5b506102b1610b87565b6040516102be91906116d8565b60405180910390f35b3480156102d357600080fd5b506102ee60048036036102e9919081019061116e565b610c15565b005b3480156102fc57600080fd5b5061031760048036036103129190810190611197565b610d62565b005b34801561032557600080fd5b50610340600480360361033b91908101906111d3565b610f09565b60405161034d919061171c565b60405180910390f35b61035e610f71565b005b34801561036c57600080fd5b50610375610fd1565b60405161038291906117f7565b60405180910390f35b34801561039757600080fd5b506103b260048036036103ad91908101906111d3565b610fd7565b6040516103bf919061171c565b60405180910390f35b600181815481106103d557fe5b906000526020600020016000915054906101000a900473ffffffffffffffffffffffffffffffffffffffff1681565b6005818154811061041157fe5b90600052602060002090600402016000915090508060000154908060010160009054906101000a900473ffffffffffffffffffffffffffffffffffffffff16908060020154908060030154905084565b60025481565b6000809054906101000a900473ffffffffffffffffffffffffffffffffffffffff1673ffffffffffffffffffffffffffffffffffffffff163373ffffffffffffffffffffffffffffffffffffffff16146104f6576040517f08c379a00000000000000000000000000000000000000000000000000000000081526004016104ed90611757565b60405180910390fd5b6002546001805490501061053f576040517f08c379a0000000000000000000000000000000000000000000000000000000008152600401610536906117b7565b60405180910390fd5b60008090505b600180549050811015610605578173ffffffffffffffffffffffffffffffffffffffff166001828154811061057657fe5b9060005260206000200160009054906101000a900473ffffffffffffffffffffffffffffffffffffffff1673ffffffffffffffffffffffffffffffffffffffff1614156105f8576040517f08c379a00000000000000000000000000000000000000000000000000000000081526004016105ef90611737565b60405180910390fd5b8080600101915050610545565b5060018190806001815401808255809150509060018203906000526020600020016000909192909190916101000a81548173ffffffffffffffffffffffffffffffffffffffff021916908373ffffffffffffffffffffffffffffffffffffffff160217905550507f14aa0e78e59adc419b134e65b6ddfa2108cf5bb07c5346e7aa5b16444c5cfc0d8160405161069b91906116aa565b60405180910390a150565b60008090506000600190505b60018054905081101561073c573373ffffffffffffffffffffffffffffffffffffffff16600182815481106106e357fe5b9060005260206000200160009054906101000a900473ffffffffffffffffffffffffffffffffffffffff1673ffffffffffffffffffffffffffffffffffffffff16141561072f57600191505b80806001019150506106b2565b5060011515600660003373ffffffffffffffffffffffffffffffffffffffff1673ffffffffffffffffffffffffffffffffffffffff168152602001908152602001600020600085815260200190815260200160002060009054906101000a900460ff16151514156107e2576040517f08c379a00000000000000000000000000000000000000000000000000000000081526004016107d9906117d7565b60405180910390fd5b81600660003373ffffffffffffffffffffffffffffffffffffffff1673ffffffffffffffffffffffffffffffffffffffff168152602001908152602001600020600085815260200190815260200160002060006101000a81548160ff0219169083151502179055506005838154811061085757fe5b9060005260206000209060040201600301600081548092919060010191905055506003546005848154811061088857fe5b90600052602060002090600402016003015410610943577f79ca210d60fa3a3278ee96057c4a73ce31a23b52eed2112fad4a3098bc8b63a883836040516108d0929190611857565b60405180910390a161093e600584815481106108e857fe5b906000526020600020906004020160010160009054906101000a900473ffffffffffffffffffffffffffffffffffffffff166005858154811061092757fe5b906000526020600020906004020160020154611006565b610979565b7fc4c49bddb83184bd7b21fb1971c9eeb31f06fe758e57fe7aeaec11805b3e6ab660405161097090611797565b60405180910390a15b505050565b600180549050811061098f57610a82565b60008190505b6001808054905003811015610a40576001808201815481106109b357fe5b9060005260206000200160009054906101000a900473ffffffffffffffffffffffffffffffffffffffff16600182815481106109eb57fe5b9060005260206000200160006101000a81548173ffffffffffffffffffffffffffffffffffffffff021916908373ffffffffffffffffffffffffffffffffffffffff1602179055508080600101915050610995565b506001805480610a4c57fe5b6001900381819060005260206000200160006101000a81549073ffffffffffffffffffffffffffffffffffffffff021916905590555b50565b60008060009054906101000a900473ffffffffffffffffffffffffffffffffffffffff16905090565b60045481565b60606005805480602002602001604051908101604052809291908181526020016000905b82821015610b7e5783829060005260206000209060040201604051806080016040529081600082015481526020016001820160009054906101000a900473ffffffffffffffffffffffffffffffffffffffff1673ffffffffffffffffffffffffffffffffffffffff1673ffffffffffffffffffffffffffffffffffffffff1681526020016002820154815260200160038201548152505081526020019060010190610ad8565b50505050905090565b60606001805480602002602001604051908101604052809291908181526020018280548015610c0b57602002820191906000526020600020905b8160009054906101000a900473ffffffffffffffffffffffffffffffffffffffff1673ffffffffffffffffffffffffffffffffffffffff1681526020019060010190808311610bc1575b5050505050905090565b6000809054906101000a900473ffffffffffffffffffffffffffffffffffffffff1673ffffffffffffffffffffffffffffffffffffffff163373ffffffffffffffffffffffffffffffffffffffff1614610ca4576040517f08c379a0000000000000000000000000000000000000000000000000000000008152600401610c9b90611757565b60405180910390fd5b8073ffffffffffffffffffffffffffffffffffffffff166000809054906101000a900473ffffffffffffffffffffffffffffffffffffffff1673ffffffffffffffffffffffffffffffffffffffff167f342827c97908e5e2f71151c08502a66d44b6f758e3ac2f1de95f02eb95f0a73560405160405180910390a3806000806101000a81548173ffffffffffffffffffffffffffffffffffffffff021916908373ffffffffffffffffffffffffffffffffffffffff16021790555050565b60008090506000600190505b600180549050811015610df8573373ffffffffffffffffffffffffffffffffffffffff1660018281548110610d9f57fe5b9060005260206000200160009054906101000a900473ffffffffffffffffffffffffffffffffffffffff1673ffffffffffffffffffffffffffffffffffffffff161415610deb57600191505b8080600101915050610d6e565b506005604051806080016040528060058054905081526020018573ffffffffffffffffffffffffffffffffffffffff1681526020018481526020016000815250908060018154018082558091505090600182039060005260206000209060040201600090919290919091506000820151816000015560208201518160010160006101000a81548173ffffffffffffffffffffffffffffffffffffffff021916908373ffffffffffffffffffffffffffffffffffffffff16021790555060408201518160020155606082015181600301555050507f6da0e3902522d81ccc029e67b0da22e76808ed732eb08ff696557395ffd1b88b8383604051610efc92919061166e565b60405180910390a1505050565b6000600660008473ffffffffffffffffffffffffffffffffffffffff1673ffffffffffffffffffffffffffffffffffffffff168152602001908152602001600020600083815260200190815260200160002060009054906101000a900460ff16905092915050565b346004600082825401925050819055503073ffffffffffffffffffffffffffffffffffffffff167f6e175c570db515c41ac78ed86d630ce972150c1411fdc1a64be85b2e776b473234604051610fc791906117f7565b60405180910390a2565b60035481565b60066020528160005260406000206020528060005260406000206000915091509054906101000a900460ff1681565b80471015611049576040517f08c379a000000000000000000000000000000000000000000000000000000000815260040161104090611777565b60405180910390fd5b8060046000828254039250508190555060004790508273ffffffffffffffffffffffffffffffffffffffff166108fc839081150290604051600060405180830381858888f193505050501580156110a4573d6000803e3d6000fd5b508273ffffffffffffffffffffffffffffffffffffffff163073ffffffffffffffffffffffffffffffffffffffff167f50bdf590d0fc625b253b2417ddd30e74dfd6bbb1b7ed20f863ca2e0722ec4de58460405161110291906117f7565b60405180910390a3818103471461111557fe5b505050565b60008135905061112981611993565b92915050565b60008135905061113e816119aa565b92915050565b600081359050611153816119c1565b92915050565b600081359050611168816119d8565b92915050565b60006020828403121561118057600080fd5b600061118e8482850161111a565b91505092915050565b600080604083850312156111aa57600080fd5b60006111b88582860161112f565b92505060206111c985828601611159565b9150509250929050565b600080604083850312156111e657600080fd5b60006111f48582860161111a565b925050602061120585828601611159565b9150509250929050565b60006020828403121561122157600080fd5b600061122f84828501611159565b91505092915050565b6000806040838503121561124b57600080fd5b600061125985828601611159565b925050602061126a85828601611144565b9150509250929050565b600061128083836112d1565b60208301905092915050565b600061129883836115e0565b60808301905092915050565b6112ad8161195d565b82525050565b6112bc81611915565b82525050565b6112cb81611915565b82525050565b6112da81611903565b82525050565b6112e981611903565b82525050565b60006112fa826118a0565b61130481856118d0565b935061130f83611880565b8060005b838110156113405781516113278882611274565b9750611332836118b6565b925050600181019050611313565b5085935050505092915050565b6000611358826118ab565b61136281856118e1565b935061136d83611890565b8060005b8381101561139e578151611385888261128c565b9750611390836118c3565b925050600181019050611371565b5085935050505092915050565b6113b481611927565b82525050565b60006113c7601b836118f2565b91507f5472616e736665722072657175657374207375636365737366756c00000000006000830152602082019050919050565b60006114076014836118f2565b91507f4f776e657220616c7265616479206578697374730000000000000000000000006000830152602082019050919050565b60006114476013836118f2565b91507f43616c6c6572206973206e6f74206f776e6572000000000000000000000000006000830152602082019050919050565b60006114876014836118f2565b91507f496e73756666696369656e742062616c616e63650000000000000000000000006000830152602082019050919050565b60006114c76018836118f2565b91507f4d6f7265207369676e61747572657320726571756972656400000000000000006000830152602082019050919050565b60006115076020836118f2565b91507f4c696d6974206f66206f776e65727320686173206265656e20726561636865646000830152602082019050919050565b60006115476018836118f2565b91507f5375636365737366756c6c79206164646564206f776e657200000000000000006000830152602082019050919050565b60006115876024836118f2565b91507f43616e277420617070726f76652073616d65207472616e73616374696f6e207460008301527f77696365000000000000000000000000000000000000000000000000000000006020830152604082019050919050565b6080820160008201516115f66000850182611635565b50602082015161160960208501826112b3565b50604082015161161c6040850182611635565b50606082015161162f6060850182611635565b50505050565b61163e81611953565b82525050565b61164d81611953565b82525050565b600060208201905061166860008301846112e0565b92915050565b600060608201905061168360008301856112a4565b6116906020830184611644565b81810360408301526116a1816113ba565b90509392505050565b60006040820190506116bf60008301846112e0565b81810360208301526116d08161153a565b905092915050565b600060208201905081810360008301526116f281846112ef565b905092915050565b60006020820190508181036000830152611714818461134d565b905092915050565b600060208201905061173160008301846113ab565b92915050565b60006020820190508181036000830152611750816113fa565b9050919050565b600060208201905081810360008301526117708161143a565b9050919050565b600060208201905081810360008301526117908161147a565b9050919050565b600060208201905081810360008301526117b0816114ba565b9050919050565b600060208201905081810360008301526117d0816114fa565b9050919050565b600060208201905081810360008301526117f08161157a565b9050919050565b600060208201905061180c6000830184611644565b92915050565b60006080820190506118276000830187611644565b61183460208301866112c2565b6118416040830185611644565b61184e6060830184611644565b95945050505050565b600060408201905061186c6000830185611644565b61187960208301846113ab565b9392505050565b6000819050602082019050919050565b6000819050602082019050919050565b600081519050919050565b600081519050919050565b6000602082019050919050565b6000602082019050919050565b600082825260208201905092915050565b600082825260208201905092915050565b600082825260208201905092915050565b600061190e82611933565b9050919050565b600061192082611933565b9050919050565b60008115159050919050565b600073ffffffffffffffffffffffffffffffffffffffff82169050919050565b6000819050919050565b60006119688261196f565b9050919050565b600061197a82611981565b9050919050565b600061198c82611933565b9050919050565b61199c81611903565b81146119a757600080fd5b50565b6119b381611915565b81146119be57600080fd5b50565b6119ca81611927565b81146119d557600080fd5b50565b6119e181611953565b81146119ec57600080fd5b5056fea365627a7a723158201a82784b13d9abc4c87e7ec5bacc67b860cc9c34fbc55f6011decb4b14671eca6c6578706572696d656e74616cf564736f6c63430005100040",
  "source": "// SPDX-License-Identifier: UNLICENCED\n\npragma solidity >=0.5.0 <0.9.0;\npragma experimental ABIEncoderV2;\n\nimport \"./Owner.sol\";\n\n/**\n * @title MultisigWallet\n * @dev Shaun Lindsley\n */\ncontract MultisigWallet is Owner {\n    uint256 public addressLimit;\n    uint public signaturesRequired;\n    uint public contractBalance = 0;\n\n    struct Transfer {\n        uint id;\n        address payable recipient;\n        uint amount;\n        uint approvalCount;\n    }\n\n    Transfer[] public transferRequests;\n    mapping(address => mapping(uint => bool)) public approvals;\n\n    constructor() public {\n        // owners[] defaults to containing msg.sender\n        owners.push(msg.sender);\n        //  Address limit defaults to 3\n        addressLimit = 3;\n        // Signatures required defaults to 2\n        signaturesRequired = 2;\n    }\n\n    // Events\n    event addOwnerComplete(address owner, string message);\n    event depositComplete(uint amount, address indexed depositedTo);\n    event transferRequestComplete(address to, uint amount, string message);\n    event requestApproved(uint transferId, bool approved);\n    event moreSignaturesRequired(string message);\n    event transferComplete(address indexed from, address indexed to, uint amount);\n\n    // Add owner function\n    function addOwner(address newOwner) public isOwner {\n        require(owners.length < addressLimit, \"Limit of owners has been reached\");\n        for (uint256 i=0; i<owners.length; i++) {\n            require(owners[i] != newOwner, \"Owner already exists\");\n        }\n        owners.push(newOwner); \n        emit addOwnerComplete(newOwner, \"Successfully added owner\"); \n    }\n\n    // Delete owner\n    function deleteOwner(uint index) public {\n        if (index >= owners.length) return;\n        for (uint i = index; i<owners.length-1; i++){\n            owners[i] = owners[i+1];\n        }\n        owners.pop();\n    }\n\n    // Deposit to contract function\n    function depositToContract() public payable {\n        contractBalance += msg.value;\n        emit depositComplete(msg.value, address(this));\n    }\n\n    // Request transfer function\n    function requestTransfer(address payable recipient, uint amount) public onlyOwners {\n        transferRequests.push(Transfer(transferRequests.length, recipient, amount, 0));\n        emit transferRequestComplete(recipient, amount, \"Transfer request successful\");\n    }\n\n    // Approve request function\n    function approveRequest(uint transferId, bool approved) public onlyOwners {\n        require(approvals[msg.sender][transferId] != true, \"Can't approve same transaction twice\");\n        approvals[msg.sender][transferId] = approved;\n        transferRequests[transferId].approvalCount++;\n\n        if (transferRequests[transferId].approvalCount >= signaturesRequired) {\n            emit requestApproved(transferId, approved);\n            _transfer(transferRequests[transferId].recipient, transferRequests[transferId].amount);\n        } else {\n            emit moreSignaturesRequired(\"More signatures required\");\n        }\n    }\n\n    // Transfer function\n    function _transfer(address payable recipient, uint amount) private {\n        require(address(this).balance >= amount, \"Insufficient balance\");\n        contractBalance -= amount;\n        uint previousContractBalance = address(this).balance;\n        recipient.transfer(amount);\n        emit transferComplete(address(this), recipient, amount);\n        assert(address(this).balance == previousContractBalance - amount);\n    }\n\n    function getTransferRequests() public view returns(Transfer[] memory) {\n        return transferRequests;\n    }\n\n    function getApproval(address account,uint transferId) public view returns(bool) {\n        return approvals[account][transferId];\n    }\n}",
  "sourcePath": "/Users/shaunlindsley/Desktop/coding/moralis-academy-courses/multisig_wallet/src/contracts/MultisigWallet.sol",
  "compiler": {
    "name": "solc",
    "version": "0.5.16+commit.9c3226ce.Emscripten.clang"
  },
  "schemaVersion": "3.4.14",
  "updatedAt": "2023-07-14T16:15:50.860Z",
  "networkType": "ethereum",
  "devdoc": {
    "details": "Shaun Lindsley",
    "methods": {},
    "title": "MultisigWallet"
  },
  "userdoc": {
    "methods": {}
  }
}