{
  "contractName": "MultisigWallet",
  "abi": [
    {
      "inputs": [],
      "payable": false,
      "stateMutability": "nonpayable",
      "type": "constructor"
    },
    {
      "anonymous": false,
      "inputs": [
        {
          "indexed": true,
          "internalType": "address",
          "name": "oldOwner",
          "type": "address"
        },
        {
          "indexed": true,
          "internalType": "address",
          "name": "newOwner",
          "type": "address"
        }
      ],
      "name": "OwnerSet",
      "type": "event"
    },
    {
      "anonymous": false,
      "inputs": [
        {
          "indexed": false,
          "internalType": "address",
          "name": "owner",
          "type": "address"
        },
        {
          "indexed": false,
          "internalType": "string",
          "name": "message",
          "type": "string"
        }
      ],
      "name": "addOwnerComplete",
      "type": "event"
    },
    {
      "anonymous": false,
      "inputs": [
        {
          "indexed": false,
          "internalType": "uint256",
          "name": "amount",
          "type": "uint256"
        },
        {
          "indexed": true,
          "internalType": "address",
          "name": "depositedTo",
          "type": "address"
        }
      ],
      "name": "depositComplete",
      "type": "event"
    },
    {
      "anonymous": false,
      "inputs": [
        {
          "indexed": false,
          "internalType": "string",
          "name": "message",
          "type": "string"
        }
      ],
      "name": "moreSignaturesRequired",
      "type": "event"
    },
    {
      "anonymous": false,
      "inputs": [
        {
          "indexed": false,
          "internalType": "uint256",
          "name": "transferId",
          "type": "uint256"
        },
        {
          "indexed": false,
          "internalType": "bool",
          "name": "approved",
          "type": "bool"
        }
      ],
      "name": "requestApproved",
      "type": "event"
    },
    {
      "anonymous": false,
      "inputs": [
        {
          "indexed": false,
          "internalType": "string",
          "name": "message",
          "type": "string"
        }
      ],
      "name": "tooManyOwners",
      "type": "event"
    },
    {
      "anonymous": false,
      "inputs": [
        {
          "indexed": true,
          "internalType": "address",
          "name": "from",
          "type": "address"
        },
        {
          "indexed": true,
          "internalType": "address",
          "name": "to",
          "type": "address"
        },
        {
          "indexed": false,
          "internalType": "uint256",
          "name": "amount",
          "type": "uint256"
        }
      ],
      "name": "transferComplete",
      "type": "event"
    },
    {
      "anonymous": false,
      "inputs": [
        {
          "indexed": false,
          "internalType": "address",
          "name": "to",
          "type": "address"
        },
        {
          "indexed": false,
          "internalType": "uint256",
          "name": "amount",
          "type": "uint256"
        },
        {
          "indexed": false,
          "internalType": "string",
          "name": "message",
          "type": "string"
        }
      ],
      "name": "transferRequestComplete",
      "type": "event"
    },
    {
      "constant": true,
      "inputs": [],
      "name": "addressLimit",
      "outputs": [
        {
          "internalType": "uint256",
          "name": "",
          "type": "uint256"
        }
      ],
      "payable": false,
      "stateMutability": "view",
      "type": "function"
    },
    {
      "constant": false,
      "inputs": [
        {
          "internalType": "address",
          "name": "newOwner",
          "type": "address"
        }
      ],
      "name": "changeOwner",
      "outputs": [],
      "payable": false,
      "stateMutability": "nonpayable",
      "type": "function"
    },
    {
      "constant": true,
      "inputs": [],
      "name": "getOwner",
      "outputs": [
        {
          "internalType": "address",
          "name": "",
          "type": "address"
        }
      ],
      "payable": false,
      "stateMutability": "view",
      "type": "function"
    },
    {
      "constant": true,
      "inputs": [
        {
          "internalType": "uint256",
          "name": "",
          "type": "uint256"
        }
      ],
      "name": "owners",
      "outputs": [
        {
          "internalType": "address",
          "name": "",
          "type": "address"
        }
      ],
      "payable": false,
      "stateMutability": "view",
      "type": "function"
    },
    {
      "constant": true,
      "inputs": [],
      "name": "signaturesRequired",
      "outputs": [
        {
          "internalType": "uint256",
          "name": "",
          "type": "uint256"
        }
      ],
      "payable": false,
      "stateMutability": "view",
      "type": "function"
    },
    {
      "constant": false,
      "inputs": [
        {
          "internalType": "address",
          "name": "newOwner",
          "type": "address"
        }
      ],
      "name": "addOwner",
      "outputs": [],
      "payable": false,
      "stateMutability": "nonpayable",
      "type": "function"
    },
    {
      "constant": false,
      "inputs": [],
      "name": "depositToContract",
      "outputs": [
        {
          "internalType": "uint256",
          "name": "",
          "type": "uint256"
        }
      ],
      "payable": true,
      "stateMutability": "payable",
      "type": "function"
    },
    {
      "constant": false,
      "inputs": [
        {
          "internalType": "address payable",
          "name": "recipient",
          "type": "address"
        },
        {
          "internalType": "uint256",
          "name": "amount",
          "type": "uint256"
        }
      ],
      "name": "requestTransfer",
      "outputs": [],
      "payable": false,
      "stateMutability": "nonpayable",
      "type": "function"
    },
    {
      "constant": false,
      "inputs": [
        {
          "internalType": "uint256",
          "name": "transferId",
          "type": "uint256"
        },
        {
          "internalType": "bool",
          "name": "approved",
          "type": "bool"
        }
      ],
      "name": "approveRequest",
      "outputs": [],
      "payable": false,
      "stateMutability": "nonpayable",
      "type": "function"
    }
  ],
  "bytecode": "0x608060405234801561001057600080fd5b50336000806101000a81548173ffffffffffffffffffffffffffffffffffffffff021916908373ffffffffffffffffffffffffffffffffffffffff1602179055506000809054906101000a900473ffffffffffffffffffffffffffffffffffffffff1673ffffffffffffffffffffffffffffffffffffffff16600073ffffffffffffffffffffffffffffffffffffffff167f342827c97908e5e2f71151c08502a66d44b6f758e3ac2f1de95f02eb95f0a73560405160405180910390a360013390806001815401808255809150509060018203906000526020600020016000909192909190916101000a81548173ffffffffffffffffffffffffffffffffffffffff021916908373ffffffffffffffffffffffffffffffffffffffff1602179055505060036002819055506002600381905550610c5d806101526000396000f3fe6080604052600436106100865760003560e01c8063893d20e811610059578063893d20e8146101c9578063a6f9dae114610220578063aa5fc79414610271578063c8f781c2146102cc578063ce757d29146102ea57610086565b8063025e7c271461008b578063113f792e146101065780637065cb4814610131578063767e0b9c14610182575b600080fd5b34801561009757600080fd5b506100c4600480360360208110156100ae57600080fd5b8101908080359060200190929190505050610315565b604051808273ffffffffffffffffffffffffffffffffffffffff1673ffffffffffffffffffffffffffffffffffffffff16815260200191505060405180910390f35b34801561011257600080fd5b5061011b610351565b6040518082815260200191505060405180910390f35b34801561013d57600080fd5b506101806004803603602081101561015457600080fd5b81019080803573ffffffffffffffffffffffffffffffffffffffff169060200190929190505050610357565b005b34801561018e57600080fd5b506101c7600480360360408110156101a557600080fd5b810190808035906020019092919080351515906020019092919050505061059a565b005b3480156101d557600080fd5b506101de610772565b604051808273ffffffffffffffffffffffffffffffffffffffff1673ffffffffffffffffffffffffffffffffffffffff16815260200191505060405180910390f35b34801561022c57600080fd5b5061026f6004803603602081101561024357600080fd5b81019080803573ffffffffffffffffffffffffffffffffffffffff16906020019092919050505061079b565b005b34801561027d57600080fd5b506102ca6004803603604081101561029457600080fd5b81019080803573ffffffffffffffffffffffffffffffffffffffff1690602001909291908035906020019092919050505061091b565b005b6102d4610a95565b6040518082815260200191505060405180910390f35b3480156102f657600080fd5b506102ff610aeb565b6040518082815260200191505060405180910390f35b6001818154811061032257fe5b906000526020600020016000915054906101000a900473ffffffffffffffffffffffffffffffffffffffff1681565b60025481565b6000809054906101000a900473ffffffffffffffffffffffffffffffffffffffff1673ffffffffffffffffffffffffffffffffffffffff163373ffffffffffffffffffffffffffffffffffffffff1614610419576040517f08c379a00000000000000000000000000000000000000000000000000000000081526004018080602001828103825260138152602001807f43616c6c6572206973206e6f74206f776e65720000000000000000000000000081525060200191505060405180910390fd5b6002546001805490501161052e5760018190806001815401808255809150509060018203906000526020600020016000909192909190916101000a81548173ffffffffffffffffffffffffffffffffffffffff021916908373ffffffffffffffffffffffffffffffffffffffff160217905550507f14aa0e78e59adc419b134e65b6ddfa2108cf5bb07c5346e7aa5b16444c5cfc0d81604051808273ffffffffffffffffffffffffffffffffffffffff1673ffffffffffffffffffffffffffffffffffffffff16815260200180602001828103825260188152602001807f5375636365737366756c6c79206164646564206f776e657200000000000000008152506020019250505060405180910390a1610597565b7fdea4758b676a229b5984130e7d6ca333c9319c61a58697e64d6d9ea98325ff256040518080602001828103825260208152602001807f4c696d6974206f66206f776e65727320686173206265656e207265616368656481525060200191505060405180910390a15b50565b80600560003373ffffffffffffffffffffffffffffffffffffffff1673ffffffffffffffffffffffffffffffffffffffff168152602001908152602001600020600084815260200190815260200160002060006101000a81548160ff0219169083151502179055506004828154811061060f57fe5b9060005260206000209060040201600301600081548092919060010191905055506003546004838154811061064057fe5b90600052602060002090600402016003015410610705577f79ca210d60fa3a3278ee96057c4a73ce31a23b52eed2112fad4a3098bc8b63a8828260405180838152602001821515151581526020019250505060405180910390a1610700600483815481106106aa57fe5b906000526020600020906004020160010160009054906101000a900473ffffffffffffffffffffffffffffffffffffffff16600484815481106106e957fe5b906000526020600020906004020160020154610af1565b61076e565b7fc4c49bddb83184bd7b21fb1971c9eeb31f06fe758e57fe7aeaec11805b3e6ab66040518080602001828103825260188152602001807f4d6f7265207369676e617475726573207265717569726564000000000000000081525060200191505060405180910390a15b5050565b60008060009054906101000a900473ffffffffffffffffffffffffffffffffffffffff16905090565b6000809054906101000a900473ffffffffffffffffffffffffffffffffffffffff1673ffffffffffffffffffffffffffffffffffffffff163373ffffffffffffffffffffffffffffffffffffffff161461085d576040517f08c379a00000000000000000000000000000000000000000000000000000000081526004018080602001828103825260138152602001807f43616c6c6572206973206e6f74206f776e65720000000000000000000000000081525060200191505060405180910390fd5b8073ffffffffffffffffffffffffffffffffffffffff166000809054906101000a900473ffffffffffffffffffffffffffffffffffffffff1673ffffffffffffffffffffffffffffffffffffffff167f342827c97908e5e2f71151c08502a66d44b6f758e3ac2f1de95f02eb95f0a73560405160405180910390a3806000806101000a81548173ffffffffffffffffffffffffffffffffffffffff021916908373ffffffffffffffffffffffffffffffffffffffff16021790555050565b6004604051806080016040528060048054905081526020018473ffffffffffffffffffffffffffffffffffffffff1681526020018381526020016000815250908060018154018082558091505090600182039060005260206000209060040201600090919290919091506000820151816000015560208201518160010160006101000a81548173ffffffffffffffffffffffffffffffffffffffff021916908373ffffffffffffffffffffffffffffffffffffffff16021790555060408201518160020155606082015181600301555050507f6da0e3902522d81ccc029e67b0da22e76808ed732eb08ff696557395ffd1b88b8282604051808373ffffffffffffffffffffffffffffffffffffffff1673ffffffffffffffffffffffffffffffffffffffff168152602001828152602001806020018281038252601b8152602001807f5472616e736665722072657175657374207375636365737366756c0000000000815250602001935050505060405180910390a15050565b60003073ffffffffffffffffffffffffffffffffffffffff167f6e175c570db515c41ac78ed86d630ce972150c1411fdc1a64be85b2e776b4732346040518082815260200191505060405180910390a247905090565b60035481565b80471015610b67576040517f08c379a00000000000000000000000000000000000000000000000000000000081526004018080602001828103825260148152602001807f496e73756666696369656e742062616c616e636500000000000000000000000081525060200191505060405180910390fd5b60004790508273ffffffffffffffffffffffffffffffffffffffff166108fc839081150290604051600060405180830381858888f19350505050158015610bb2573d6000803e3d6000fd5b508273ffffffffffffffffffffffffffffffffffffffff163073ffffffffffffffffffffffffffffffffffffffff167f50bdf590d0fc625b253b2417ddd30e74dfd6bbb1b7ed20f863ca2e0722ec4de5846040518082815260200191505060405180910390a38181034714610c2357fe5b50505056fea265627a7a72315820657f340f220a0094e50d0683077bc98f28698712ea27101afcfcab20d205261564736f6c63430005100032",
  "source": "// SPDX-License-Identifier: UNLICENCED\n\npragma solidity >=0.5.0 <0.9.0;\n// pragma experimental ABIEncoderV2;\n\nimport \"./Owner.sol\";\n\n/**\n * @title MultisigWallet\n * @dev Shaun Lindsley\n */\ncontract MultisigWallet is Owner {\n    uint256 public addressLimit;\n    uint public signaturesRequired;\n\n    struct Transfer {\n        uint id;\n        address payable recipient;\n        uint amount;\n        uint approvalCount;\n    }\n\n    Transfer[] transferRequests;\n    mapping(address => mapping(uint => bool)) approvals;\n\n    constructor() public {\n        // owners[] defaults to containing msg.sender\n        owners.push(msg.sender);\n        //  Address limit defaults to 3\n        addressLimit = 3;\n        // Signatures required defaults to 2\n        signaturesRequired = 2;\n    }\n\n    // Events\n    event addOwnerComplete(address owner, string message);\n    event tooManyOwners(string message);\n    event depositComplete(uint amount, address indexed depositedTo);\n    event transferRequestComplete(address to, uint amount, string message);\n    event requestApproved(uint transferId, bool approved);\n    event moreSignaturesRequired(string message);\n    event transferComplete(address indexed from, address indexed to, uint amount);\n\n    // Add owner function\n    function addOwner(address newOwner) public isOwner {\n        if (owners.length <= addressLimit) {\n            owners.push(newOwner); \n            emit addOwnerComplete(newOwner, \"Successfully added owner\"); \n        } else {\n            emit tooManyOwners(\"Limit of owners has been reached\");\n        }\n    }\n\n    // Deposit to contract function\n    function depositToContract() public payable returns(uint) {\n        emit depositComplete(msg.value, address(this));\n        return address(this).balance;\n    }\n\n    // Request transfer function\n    function requestTransfer(address payable recipient, uint amount) public {\n        transferRequests.push(Transfer(transferRequests.length, recipient, amount, 0));\n        emit transferRequestComplete(recipient, amount, \"Transfer request successful\");\n    }\n\n    // Approve request function\n    function approveRequest(uint transferId, bool approved) public {\n        approvals[msg.sender][transferId] = approved;\n        transferRequests[transferId].approvalCount++;\n\n        if (transferRequests[transferId].approvalCount >= signaturesRequired) {\n            emit requestApproved(transferId, approved);\n            _transfer(transferRequests[transferId].recipient, transferRequests[transferId].amount);\n        } else {\n            emit moreSignaturesRequired(\"More signatures required\");\n        }\n    }\n\n    // Transfer function\n    function _transfer(address payable recipient, uint amount) private {\n        require(address(this).balance >= amount, \"Insufficient balance\");\n        uint previousContractBalance = address(this).balance;\n        recipient.transfer(amount);\n        emit transferComplete(address(this), recipient, amount);\n        assert(address(this).balance == previousContractBalance - amount);\n    }\n}",
  "sourcePath": "/Users/shaunlindsley/Desktop/coding/moralis-academy-courses/multisig_wallet/src/contracts/MultisigWallet.sol",
  "compiler": {
    "name": "solc",
    "version": "0.5.16+commit.9c3226ce.Emscripten.clang"
  },
  "schemaVersion": "3.4.14",
  "updatedAt": "2023-07-11T18:12:07.193Z",
  "devdoc": {
    "details": "Shaun Lindsley",
    "methods": {
      "changeOwner(address)": {
        "details": "Change owner",
        "params": {
          "newOwner": "address of new owner"
        }
      },
      "getOwner()": {
        "details": "Return owner address ",
        "return": "address of owner"
      }
    },
    "title": "MultisigWallet"
  },
  "userdoc": {
    "methods": {}
  }
}