{
  "contractName": "MultisigWallet",
  "abi": [
    {
      "inputs": [],
      "payable": false,
      "stateMutability": "nonpayable",
      "type": "constructor"
    },
    {
      "anonymous": false,
      "inputs": [
        {
          "indexed": true,
          "internalType": "address",
          "name": "oldOwner",
          "type": "address"
        },
        {
          "indexed": true,
          "internalType": "address",
          "name": "newOwner",
          "type": "address"
        }
      ],
      "name": "OwnerSet",
      "type": "event"
    },
    {
      "anonymous": false,
      "inputs": [
        {
          "indexed": false,
          "internalType": "address",
          "name": "owner",
          "type": "address"
        },
        {
          "indexed": false,
          "internalType": "string",
          "name": "message",
          "type": "string"
        }
      ],
      "name": "addOwnerComplete",
      "type": "event"
    },
    {
      "anonymous": false,
      "inputs": [
        {
          "indexed": false,
          "internalType": "uint256",
          "name": "amount",
          "type": "uint256"
        },
        {
          "indexed": true,
          "internalType": "address",
          "name": "depositedTo",
          "type": "address"
        }
      ],
      "name": "depositComplete",
      "type": "event"
    },
    {
      "anonymous": false,
      "inputs": [
        {
          "indexed": false,
          "internalType": "string",
          "name": "message",
          "type": "string"
        }
      ],
      "name": "moreSignaturesRequired",
      "type": "event"
    },
    {
      "anonymous": false,
      "inputs": [
        {
          "indexed": false,
          "internalType": "uint256",
          "name": "transferId",
          "type": "uint256"
        },
        {
          "indexed": false,
          "internalType": "bool",
          "name": "approved",
          "type": "bool"
        }
      ],
      "name": "requestApproved",
      "type": "event"
    },
    {
      "anonymous": false,
      "inputs": [
        {
          "indexed": true,
          "internalType": "address",
          "name": "from",
          "type": "address"
        },
        {
          "indexed": true,
          "internalType": "address",
          "name": "to",
          "type": "address"
        },
        {
          "indexed": false,
          "internalType": "uint256",
          "name": "amount",
          "type": "uint256"
        }
      ],
      "name": "transferComplete",
      "type": "event"
    },
    {
      "anonymous": false,
      "inputs": [
        {
          "indexed": false,
          "internalType": "address",
          "name": "to",
          "type": "address"
        },
        {
          "indexed": false,
          "internalType": "uint256",
          "name": "amount",
          "type": "uint256"
        },
        {
          "indexed": false,
          "internalType": "string",
          "name": "message",
          "type": "string"
        }
      ],
      "name": "transferRequestComplete",
      "type": "event"
    },
    {
      "constant": true,
      "inputs": [],
      "name": "addressLimit",
      "outputs": [
        {
          "internalType": "uint256",
          "name": "",
          "type": "uint256"
        }
      ],
      "payable": false,
      "stateMutability": "view",
      "type": "function"
    },
    {
      "constant": true,
      "inputs": [
        {
          "internalType": "address",
          "name": "",
          "type": "address"
        },
        {
          "internalType": "uint256",
          "name": "",
          "type": "uint256"
        }
      ],
      "name": "approvals",
      "outputs": [
        {
          "internalType": "bool",
          "name": "",
          "type": "bool"
        }
      ],
      "payable": false,
      "stateMutability": "view",
      "type": "function"
    },
    {
      "constant": false,
      "inputs": [
        {
          "internalType": "address",
          "name": "newOwner",
          "type": "address"
        }
      ],
      "name": "changeOwner",
      "outputs": [],
      "payable": false,
      "stateMutability": "nonpayable",
      "type": "function"
    },
    {
      "constant": true,
      "inputs": [],
      "name": "contractBalance",
      "outputs": [
        {
          "internalType": "uint256",
          "name": "",
          "type": "uint256"
        }
      ],
      "payable": false,
      "stateMutability": "view",
      "type": "function"
    },
    {
      "constant": true,
      "inputs": [],
      "name": "getOwner",
      "outputs": [
        {
          "internalType": "address",
          "name": "",
          "type": "address"
        }
      ],
      "payable": false,
      "stateMutability": "view",
      "type": "function"
    },
    {
      "constant": true,
      "inputs": [],
      "name": "getOwners",
      "outputs": [
        {
          "internalType": "address[]",
          "name": "",
          "type": "address[]"
        }
      ],
      "payable": false,
      "stateMutability": "view",
      "type": "function"
    },
    {
      "constant": true,
      "inputs": [
        {
          "internalType": "uint256",
          "name": "",
          "type": "uint256"
        }
      ],
      "name": "owners",
      "outputs": [
        {
          "internalType": "address",
          "name": "",
          "type": "address"
        }
      ],
      "payable": false,
      "stateMutability": "view",
      "type": "function"
    },
    {
      "constant": true,
      "inputs": [],
      "name": "signaturesRequired",
      "outputs": [
        {
          "internalType": "uint256",
          "name": "",
          "type": "uint256"
        }
      ],
      "payable": false,
      "stateMutability": "view",
      "type": "function"
    },
    {
      "constant": true,
      "inputs": [
        {
          "internalType": "uint256",
          "name": "",
          "type": "uint256"
        }
      ],
      "name": "transferRequests",
      "outputs": [
        {
          "internalType": "uint256",
          "name": "id",
          "type": "uint256"
        },
        {
          "internalType": "address payable",
          "name": "recipient",
          "type": "address"
        },
        {
          "internalType": "uint256",
          "name": "amount",
          "type": "uint256"
        },
        {
          "internalType": "uint256",
          "name": "approvalCount",
          "type": "uint256"
        }
      ],
      "payable": false,
      "stateMutability": "view",
      "type": "function"
    },
    {
      "constant": false,
      "inputs": [
        {
          "internalType": "address",
          "name": "newOwner",
          "type": "address"
        }
      ],
      "name": "addOwner",
      "outputs": [],
      "payable": false,
      "stateMutability": "nonpayable",
      "type": "function"
    },
    {
      "constant": false,
      "inputs": [
        {
          "internalType": "uint256",
          "name": "index",
          "type": "uint256"
        }
      ],
      "name": "deleteOwner",
      "outputs": [],
      "payable": false,
      "stateMutability": "nonpayable",
      "type": "function"
    },
    {
      "constant": false,
      "inputs": [],
      "name": "depositToContract",
      "outputs": [],
      "payable": true,
      "stateMutability": "payable",
      "type": "function"
    },
    {
      "constant": false,
      "inputs": [
        {
          "internalType": "address payable",
          "name": "recipient",
          "type": "address"
        },
        {
          "internalType": "uint256",
          "name": "amount",
          "type": "uint256"
        }
      ],
      "name": "requestTransfer",
      "outputs": [],
      "payable": false,
      "stateMutability": "nonpayable",
      "type": "function"
    },
    {
      "constant": false,
      "inputs": [
        {
          "internalType": "uint256",
          "name": "transferId",
          "type": "uint256"
        },
        {
          "internalType": "bool",
          "name": "approved",
          "type": "bool"
        }
      ],
      "name": "approveRequest",
      "outputs": [],
      "payable": false,
      "stateMutability": "nonpayable",
      "type": "function"
    },
    {
      "constant": true,
      "inputs": [],
      "name": "getTransferRequests",
      "outputs": [
        {
          "components": [
            {
              "internalType": "uint256",
              "name": "id",
              "type": "uint256"
            },
            {
              "internalType": "address payable",
              "name": "recipient",
              "type": "address"
            },
            {
              "internalType": "uint256",
              "name": "amount",
              "type": "uint256"
            },
            {
              "internalType": "uint256",
              "name": "approvalCount",
              "type": "uint256"
            }
          ],
          "internalType": "struct MultisigWallet.Transfer[]",
          "name": "",
          "type": "tuple[]"
        }
      ],
      "payable": false,
      "stateMutability": "view",
      "type": "function"
    }
  ],
  "bytecode": "0x6080604052600060045534801561001557600080fd5b50336000806101000a81548173ffffffffffffffffffffffffffffffffffffffff021916908373ffffffffffffffffffffffffffffffffffffffff1602179055506000809054906101000a900473ffffffffffffffffffffffffffffffffffffffff1673ffffffffffffffffffffffffffffffffffffffff16600073ffffffffffffffffffffffffffffffffffffffff167f342827c97908e5e2f71151c08502a66d44b6f758e3ac2f1de95f02eb95f0a73560405160405180910390a360013390806001815401808255809150509060018203906000526020600020016000909192909190916101000a81548173ffffffffffffffffffffffffffffffffffffffff021916908373ffffffffffffffffffffffffffffffffffffffff1602179055505060036002819055506002600381905550611857806101576000396000f3fe6080604052600436106100e85760003560e01c80638b7afe2e1161008a578063aa5fc79411610059578063aa5fc794146102e5578063c8f781c21461030e578063ce757d2914610318578063ffabc67314610343576100e8565b80638b7afe2e1461023b578063a04ef14514610266578063a0e67e2b14610291578063a6f9dae1146102bc576100e8565b80637065cb48116100c65780637065cb4814610195578063767e0b9c146101be578063780dd0cf146101e7578063893d20e814610210576100e8565b8063025e7c27146100ed57806303486c401461012a578063113f792e1461016a575b600080fd5b3480156100f957600080fd5b50610114600480360361010f91908101906110ba565b610380565b6040516101219190611498565b60405180910390f35b34801561013657600080fd5b50610151600480360361014c91908101906110ba565b6103bc565b6040516101619493929190611637565b60405180910390f35b34801561017657600080fd5b5061017f610419565b60405161018c919061161c565b60405180910390f35b3480156101a157600080fd5b506101bc60048036036101b79190810190611019565b61041f565b005b3480156101ca57600080fd5b506101e560048036036101e091908101906110e3565b61065e565b005b3480156101f357600080fd5b5061020e600480360361020991908101906110ba565b610891565b005b34801561021c57600080fd5b50610225610998565b6040516102329190611498565b60405180910390f35b34801561024757600080fd5b506102506109c1565b60405161025d919061161c565b60405180910390f35b34801561027257600080fd5b5061027b6109c7565b604051610288919061153f565b60405180910390f35b34801561029d57600080fd5b506102a6610a9a565b6040516102b3919061151d565b60405180910390f35b3480156102c857600080fd5b506102e360048036036102de9190810190611019565b610b28565b005b3480156102f157600080fd5b5061030c60048036036103079190810190611042565b610c75565b005b610316610e1c565b005b34801561032457600080fd5b5061032d610e7c565b60405161033a919061161c565b60405180910390f35b34801561034f57600080fd5b5061036a6004803603610365919081019061107e565b610e82565b6040516103779190611561565b60405180910390f35b6001818154811061038d57fe5b906000526020600020016000915054906101000a900473ffffffffffffffffffffffffffffffffffffffff1681565b600581815481106103c957fe5b90600052602060002090600402016000915090508060000154908060010160009054906101000a900473ffffffffffffffffffffffffffffffffffffffff16908060020154908060030154905084565b60025481565b6000809054906101000a900473ffffffffffffffffffffffffffffffffffffffff1673ffffffffffffffffffffffffffffffffffffffff163373ffffffffffffffffffffffffffffffffffffffff16146104ae576040517f08c379a00000000000000000000000000000000000000000000000000000000081526004016104a59061159c565b60405180910390fd5b600254600180549050106104f7576040517f08c379a00000000000000000000000000000000000000000000000000000000081526004016104ee906115fc565b60405180910390fd5b60008090505b6001805490508110156105bd578173ffffffffffffffffffffffffffffffffffffffff166001828154811061052e57fe5b9060005260206000200160009054906101000a900473ffffffffffffffffffffffffffffffffffffffff1673ffffffffffffffffffffffffffffffffffffffff1614156105b0576040517f08c379a00000000000000000000000000000000000000000000000000000000081526004016105a79061157c565b60405180910390fd5b80806001019150506104fd565b5060018190806001815401808255809150509060018203906000526020600020016000909192909190916101000a81548173ffffffffffffffffffffffffffffffffffffffff021916908373ffffffffffffffffffffffffffffffffffffffff160217905550507f14aa0e78e59adc419b134e65b6ddfa2108cf5bb07c5346e7aa5b16444c5cfc0d8160405161065391906114ef565b60405180910390a150565b60008090506000600190505b6001805490508110156106f4573373ffffffffffffffffffffffffffffffffffffffff166001828154811061069b57fe5b9060005260206000200160009054906101000a900473ffffffffffffffffffffffffffffffffffffffff1673ffffffffffffffffffffffffffffffffffffffff1614156106e757600191505b808060010191505061066a565b5081600660003373ffffffffffffffffffffffffffffffffffffffff1673ffffffffffffffffffffffffffffffffffffffff168152602001908152602001600020600085815260200190815260200160002060006101000a81548160ff0219169083151502179055506005838154811061076a57fe5b9060005260206000209060040201600301600081548092919060010191905055506003546005848154811061079b57fe5b90600052602060002090600402016003015410610856577f79ca210d60fa3a3278ee96057c4a73ce31a23b52eed2112fad4a3098bc8b63a883836040516107e392919061167c565b60405180910390a1610851600584815481106107fb57fe5b906000526020600020906004020160010160009054906101000a900473ffffffffffffffffffffffffffffffffffffffff166005858154811061083a57fe5b906000526020600020906004020160020154610eb1565b61088c565b7fc4c49bddb83184bd7b21fb1971c9eeb31f06fe758e57fe7aeaec11805b3e6ab6604051610883906115dc565b60405180910390a15b505050565b60018054905081106108a257610995565b60008190505b6001808054905003811015610953576001808201815481106108c657fe5b9060005260206000200160009054906101000a900473ffffffffffffffffffffffffffffffffffffffff16600182815481106108fe57fe5b9060005260206000200160006101000a81548173ffffffffffffffffffffffffffffffffffffffff021916908373ffffffffffffffffffffffffffffffffffffffff16021790555080806001019150506108a8565b50600180548061095f57fe5b6001900381819060005260206000200160006101000a81549073ffffffffffffffffffffffffffffffffffffffff021916905590555b50565b60008060009054906101000a900473ffffffffffffffffffffffffffffffffffffffff16905090565b60045481565b60606005805480602002602001604051908101604052809291908181526020016000905b82821015610a915783829060005260206000209060040201604051806080016040529081600082015481526020016001820160009054906101000a900473ffffffffffffffffffffffffffffffffffffffff1673ffffffffffffffffffffffffffffffffffffffff1673ffffffffffffffffffffffffffffffffffffffff16815260200160028201548152602001600382015481525050815260200190600101906109eb565b50505050905090565b60606001805480602002602001604051908101604052809291908181526020018280548015610b1e57602002820191906000526020600020905b8160009054906101000a900473ffffffffffffffffffffffffffffffffffffffff1673ffffffffffffffffffffffffffffffffffffffff1681526020019060010190808311610ad4575b5050505050905090565b6000809054906101000a900473ffffffffffffffffffffffffffffffffffffffff1673ffffffffffffffffffffffffffffffffffffffff163373ffffffffffffffffffffffffffffffffffffffff1614610bb7576040517f08c379a0000000000000000000000000000000000000000000000000000000008152600401610bae9061159c565b60405180910390fd5b8073ffffffffffffffffffffffffffffffffffffffff166000809054906101000a900473ffffffffffffffffffffffffffffffffffffffff1673ffffffffffffffffffffffffffffffffffffffff167f342827c97908e5e2f71151c08502a66d44b6f758e3ac2f1de95f02eb95f0a73560405160405180910390a3806000806101000a81548173ffffffffffffffffffffffffffffffffffffffff021916908373ffffffffffffffffffffffffffffffffffffffff16021790555050565b60008090506000600190505b600180549050811015610d0b573373ffffffffffffffffffffffffffffffffffffffff1660018281548110610cb257fe5b9060005260206000200160009054906101000a900473ffffffffffffffffffffffffffffffffffffffff1673ffffffffffffffffffffffffffffffffffffffff161415610cfe57600191505b8080600101915050610c81565b506005604051806080016040528060058054905081526020018573ffffffffffffffffffffffffffffffffffffffff1681526020018481526020016000815250908060018154018082558091505090600182039060005260206000209060040201600090919290919091506000820151816000015560208201518160010160006101000a81548173ffffffffffffffffffffffffffffffffffffffff021916908373ffffffffffffffffffffffffffffffffffffffff16021790555060408201518160020155606082015181600301555050507f6da0e3902522d81ccc029e67b0da22e76808ed732eb08ff696557395ffd1b88b8383604051610e0f9291906114b3565b60405180910390a1505050565b346004600082825401925050819055503073ffffffffffffffffffffffffffffffffffffffff167f6e175c570db515c41ac78ed86d630ce972150c1411fdc1a64be85b2e776b473234604051610e72919061161c565b60405180910390a2565b60035481565b60066020528160005260406000206020528060005260406000206000915091509054906101000a900460ff1681565b80471015610ef4576040517f08c379a0000000000000000000000000000000000000000000000000000000008152600401610eeb906115bc565b60405180910390fd5b8060046000828254039250508190555060004790508273ffffffffffffffffffffffffffffffffffffffff166108fc839081150290604051600060405180830381858888f19350505050158015610f4f573d6000803e3d6000fd5b508273ffffffffffffffffffffffffffffffffffffffff163073ffffffffffffffffffffffffffffffffffffffff167f50bdf590d0fc625b253b2417ddd30e74dfd6bbb1b7ed20f863ca2e0722ec4de584604051610fad919061161c565b60405180910390a38181034714610fc057fe5b505050565b600081359050610fd4816117b8565b92915050565b600081359050610fe9816117cf565b92915050565b600081359050610ffe816117e6565b92915050565b600081359050611013816117fd565b92915050565b60006020828403121561102b57600080fd5b600061103984828501610fc5565b91505092915050565b6000806040838503121561105557600080fd5b600061106385828601610fda565b925050602061107485828601611004565b9150509250929050565b6000806040838503121561109157600080fd5b600061109f85828601610fc5565b92505060206110b085828601611004565b9150509250929050565b6000602082840312156110cc57600080fd5b60006110da84828501611004565b91505092915050565b600080604083850312156110f657600080fd5b600061110485828601611004565b925050602061111585828601610fef565b9150509250929050565b600061112b838361117c565b60208301905092915050565b60006111438383611425565b60808301905092915050565b61115881611782565b82525050565b6111678161173a565b82525050565b6111768161173a565b82525050565b61118581611728565b82525050565b61119481611728565b82525050565b60006111a5826116c5565b6111af81856116f5565b93506111ba836116a5565b8060005b838110156111eb5781516111d2888261111f565b97506111dd836116db565b9250506001810190506111be565b5085935050505092915050565b6000611203826116d0565b61120d8185611706565b9350611218836116b5565b8060005b838110156112495781516112308882611137565b975061123b836116e8565b92505060018101905061121c565b5085935050505092915050565b61125f8161174c565b82525050565b6000611272601b83611717565b91507f5472616e736665722072657175657374207375636365737366756c00000000006000830152602082019050919050565b60006112b2601483611717565b91507f4f776e657220616c7265616479206578697374730000000000000000000000006000830152602082019050919050565b60006112f2601383611717565b91507f43616c6c6572206973206e6f74206f776e6572000000000000000000000000006000830152602082019050919050565b6000611332601483611717565b91507f496e73756666696369656e742062616c616e63650000000000000000000000006000830152602082019050919050565b6000611372601883611717565b91507f4d6f7265207369676e61747572657320726571756972656400000000000000006000830152602082019050919050565b60006113b2602083611717565b91507f4c696d6974206f66206f776e65727320686173206265656e20726561636865646000830152602082019050919050565b60006113f2601883611717565b91507f5375636365737366756c6c79206164646564206f776e657200000000000000006000830152602082019050919050565b60808201600082015161143b600085018261147a565b50602082015161144e602085018261115e565b506040820151611461604085018261147a565b506060820151611474606085018261147a565b50505050565b61148381611778565b82525050565b61149281611778565b82525050565b60006020820190506114ad600083018461118b565b92915050565b60006060820190506114c8600083018561114f565b6114d56020830184611489565b81810360408301526114e681611265565b90509392505050565b6000604082019050611504600083018461118b565b8181036020830152611515816113e5565b905092915050565b60006020820190508181036000830152611537818461119a565b905092915050565b6000602082019050818103600083015261155981846111f8565b905092915050565b60006020820190506115766000830184611256565b92915050565b60006020820190508181036000830152611595816112a5565b9050919050565b600060208201905081810360008301526115b5816112e5565b9050919050565b600060208201905081810360008301526115d581611325565b9050919050565b600060208201905081810360008301526115f581611365565b9050919050565b60006020820190508181036000830152611615816113a5565b9050919050565b60006020820190506116316000830184611489565b92915050565b600060808201905061164c6000830187611489565b611659602083018661116d565b6116666040830185611489565b6116736060830184611489565b95945050505050565b60006040820190506116916000830185611489565b61169e6020830184611256565b9392505050565b6000819050602082019050919050565b6000819050602082019050919050565b600081519050919050565b600081519050919050565b6000602082019050919050565b6000602082019050919050565b600082825260208201905092915050565b600082825260208201905092915050565b600082825260208201905092915050565b600061173382611758565b9050919050565b600061174582611758565b9050919050565b60008115159050919050565b600073ffffffffffffffffffffffffffffffffffffffff82169050919050565b6000819050919050565b600061178d82611794565b9050919050565b600061179f826117a6565b9050919050565b60006117b182611758565b9050919050565b6117c181611728565b81146117cc57600080fd5b50565b6117d88161173a565b81146117e357600080fd5b50565b6117ef8161174c565b81146117fa57600080fd5b50565b61180681611778565b811461181157600080fd5b5056fea365627a7a723158204357233aca1abf220759870e5e15f2b1778520767372fd1b50864065b64c71e16c6578706572696d656e74616cf564736f6c63430005100040",
  "source": "// SPDX-License-Identifier: UNLICENCED\n\npragma solidity >=0.5.0 <0.9.0;\npragma experimental ABIEncoderV2;\n\nimport \"./Owner.sol\";\n\n/**\n * @title MultisigWallet\n * @dev Shaun Lindsley\n */\ncontract MultisigWallet is Owner {\n    uint256 public addressLimit;\n    uint public signaturesRequired;\n    uint public contractBalance = 0;\n\n    struct Transfer {\n        uint id;\n        address payable recipient;\n        uint amount;\n        uint approvalCount;\n    }\n\n    Transfer[] public transferRequests;\n    mapping(address => mapping(uint => bool)) public approvals;\n\n    constructor() public {\n        // owners[] defaults to containing msg.sender\n        owners.push(msg.sender);\n        //  Address limit defaults to 3\n        addressLimit = 3;\n        // Signatures required defaults to 2\n        signaturesRequired = 2;\n    }\n\n    // Events\n    event addOwnerComplete(address owner, string message);\n    event depositComplete(uint amount, address indexed depositedTo);\n    event transferRequestComplete(address to, uint amount, string message);\n    event requestApproved(uint transferId, bool approved);\n    event moreSignaturesRequired(string message);\n    event transferComplete(address indexed from, address indexed to, uint amount);\n\n    // Add owner function\n    function addOwner(address newOwner) public isOwner {\n        require(owners.length < addressLimit, \"Limit of owners has been reached\");\n        for (uint256 i=0; i<owners.length; i++) {\n            require(owners[i] != newOwner, \"Owner already exists\");\n        }\n        owners.push(newOwner); \n        emit addOwnerComplete(newOwner, \"Successfully added owner\"); \n    }\n\n    // Delete owner\n    function deleteOwner(uint index) public {\n        if (index >= owners.length) return;\n        for (uint i = index; i<owners.length-1; i++){\n            owners[i] = owners[i+1];\n        }\n        owners.pop();\n    }\n\n    // Deposit to contract function\n    function depositToContract() public payable {\n        contractBalance += msg.value;\n        emit depositComplete(msg.value, address(this));\n    }\n\n    // Request transfer function\n    function requestTransfer(address payable recipient, uint amount) public onlyOwners {\n        transferRequests.push(Transfer(transferRequests.length, recipient, amount, 0));\n        emit transferRequestComplete(recipient, amount, \"Transfer request successful\");\n    }\n\n    // Approve request function\n    function approveRequest(uint transferId, bool approved) public onlyOwners {\n        approvals[msg.sender][transferId] = approved;\n        transferRequests[transferId].approvalCount++;\n\n        if (transferRequests[transferId].approvalCount >= signaturesRequired) {\n            emit requestApproved(transferId, approved);\n            _transfer(transferRequests[transferId].recipient, transferRequests[transferId].amount);\n        } else {\n            emit moreSignaturesRequired(\"More signatures required\");\n        }\n    }\n\n    // Transfer function\n    function _transfer(address payable recipient, uint amount) private {\n        require(address(this).balance >= amount, \"Insufficient balance\");\n        contractBalance -= amount;\n        uint previousContractBalance = address(this).balance;\n        recipient.transfer(amount);\n        emit transferComplete(address(this), recipient, amount);\n        assert(address(this).balance == previousContractBalance - amount);\n    }\n\n    function getTransferRequests() public view returns(Transfer[] memory) {\n        return transferRequests;\n    }\n}",
  "sourcePath": "/Users/shaunlindsley/Desktop/coding/moralis-academy-courses/multisig_wallet/src/contracts/MultisigWallet.sol",
  "compiler": {
    "name": "solc",
    "version": "0.5.16+commit.9c3226ce.Emscripten.clang"
  },
  "schemaVersion": "3.4.14",
  "updatedAt": "2023-07-13T17:32:18.321Z",
  "networkType": "ethereum",
  "devdoc": {
    "details": "Shaun Lindsley",
    "methods": {},
    "title": "MultisigWallet"
  },
  "userdoc": {
    "methods": {}
  }
}