{
  "contractName": "MultisigWallet",
  "abi": [
    {
      "inputs": [],
      "payable": false,
      "stateMutability": "nonpayable",
      "type": "constructor"
    },
    {
      "anonymous": false,
      "inputs": [
        {
          "indexed": true,
          "internalType": "address",
          "name": "oldOwner",
          "type": "address"
        },
        {
          "indexed": true,
          "internalType": "address",
          "name": "newOwner",
          "type": "address"
        }
      ],
      "name": "OwnerSet",
      "type": "event"
    },
    {
      "anonymous": false,
      "inputs": [
        {
          "indexed": false,
          "internalType": "address",
          "name": "owner",
          "type": "address"
        },
        {
          "indexed": false,
          "internalType": "string",
          "name": "message",
          "type": "string"
        }
      ],
      "name": "addOwnerComplete",
      "type": "event"
    },
    {
      "anonymous": false,
      "inputs": [
        {
          "indexed": false,
          "internalType": "uint256",
          "name": "amount",
          "type": "uint256"
        },
        {
          "indexed": true,
          "internalType": "address",
          "name": "depositedTo",
          "type": "address"
        }
      ],
      "name": "depositComplete",
      "type": "event"
    },
    {
      "anonymous": false,
      "inputs": [
        {
          "indexed": false,
          "internalType": "string",
          "name": "message",
          "type": "string"
        }
      ],
      "name": "moreSignaturesRequired",
      "type": "event"
    },
    {
      "anonymous": false,
      "inputs": [
        {
          "indexed": false,
          "internalType": "uint256",
          "name": "transferId",
          "type": "uint256"
        },
        {
          "indexed": false,
          "internalType": "bool",
          "name": "approved",
          "type": "bool"
        }
      ],
      "name": "requestApproved",
      "type": "event"
    },
    {
      "anonymous": false,
      "inputs": [
        {
          "indexed": false,
          "internalType": "string",
          "name": "message",
          "type": "string"
        }
      ],
      "name": "tooManyOwners",
      "type": "event"
    },
    {
      "anonymous": false,
      "inputs": [
        {
          "indexed": true,
          "internalType": "address",
          "name": "from",
          "type": "address"
        },
        {
          "indexed": true,
          "internalType": "address",
          "name": "to",
          "type": "address"
        },
        {
          "indexed": false,
          "internalType": "uint256",
          "name": "amount",
          "type": "uint256"
        }
      ],
      "name": "transferComplete",
      "type": "event"
    },
    {
      "anonymous": false,
      "inputs": [
        {
          "indexed": false,
          "internalType": "address",
          "name": "to",
          "type": "address"
        },
        {
          "indexed": false,
          "internalType": "uint256",
          "name": "amount",
          "type": "uint256"
        },
        {
          "indexed": false,
          "internalType": "string",
          "name": "message",
          "type": "string"
        }
      ],
      "name": "transferRequestComplete",
      "type": "event"
    },
    {
      "constant": true,
      "inputs": [],
      "name": "addressLimit",
      "outputs": [
        {
          "internalType": "uint256",
          "name": "",
          "type": "uint256"
        }
      ],
      "payable": false,
      "stateMutability": "view",
      "type": "function"
    },
    {
      "constant": false,
      "inputs": [
        {
          "internalType": "address",
          "name": "newOwner",
          "type": "address"
        }
      ],
      "name": "changeOwner",
      "outputs": [],
      "payable": false,
      "stateMutability": "nonpayable",
      "type": "function"
    },
    {
      "constant": true,
      "inputs": [],
      "name": "contractBalance",
      "outputs": [
        {
          "internalType": "uint256",
          "name": "",
          "type": "uint256"
        }
      ],
      "payable": false,
      "stateMutability": "view",
      "type": "function"
    },
    {
      "constant": true,
      "inputs": [],
      "name": "getOwner",
      "outputs": [
        {
          "internalType": "address",
          "name": "",
          "type": "address"
        }
      ],
      "payable": false,
      "stateMutability": "view",
      "type": "function"
    },
    {
      "constant": true,
      "inputs": [],
      "name": "getOwners",
      "outputs": [
        {
          "internalType": "address[]",
          "name": "",
          "type": "address[]"
        }
      ],
      "payable": false,
      "stateMutability": "view",
      "type": "function"
    },
    {
      "constant": true,
      "inputs": [
        {
          "internalType": "uint256",
          "name": "",
          "type": "uint256"
        }
      ],
      "name": "owners",
      "outputs": [
        {
          "internalType": "address",
          "name": "",
          "type": "address"
        }
      ],
      "payable": false,
      "stateMutability": "view",
      "type": "function"
    },
    {
      "constant": true,
      "inputs": [],
      "name": "signaturesRequired",
      "outputs": [
        {
          "internalType": "uint256",
          "name": "",
          "type": "uint256"
        }
      ],
      "payable": false,
      "stateMutability": "view",
      "type": "function"
    },
    {
      "constant": false,
      "inputs": [
        {
          "internalType": "address",
          "name": "newOwner",
          "type": "address"
        }
      ],
      "name": "addOwner",
      "outputs": [],
      "payable": false,
      "stateMutability": "nonpayable",
      "type": "function"
    },
    {
      "constant": false,
      "inputs": [],
      "name": "depositToContract",
      "outputs": [],
      "payable": true,
      "stateMutability": "payable",
      "type": "function"
    },
    {
      "constant": false,
      "inputs": [
        {
          "internalType": "address payable",
          "name": "recipient",
          "type": "address"
        },
        {
          "internalType": "uint256",
          "name": "amount",
          "type": "uint256"
        }
      ],
      "name": "requestTransfer",
      "outputs": [],
      "payable": false,
      "stateMutability": "nonpayable",
      "type": "function"
    },
    {
      "constant": false,
      "inputs": [
        {
          "internalType": "uint256",
          "name": "transferId",
          "type": "uint256"
        },
        {
          "internalType": "bool",
          "name": "approved",
          "type": "bool"
        }
      ],
      "name": "approveRequest",
      "outputs": [],
      "payable": false,
      "stateMutability": "nonpayable",
      "type": "function"
    },
    {
      "constant": true,
      "inputs": [],
      "name": "getAddressLimit",
      "outputs": [
        {
          "internalType": "uint256",
          "name": "",
          "type": "uint256"
        }
      ],
      "payable": false,
      "stateMutability": "view",
      "type": "function"
    }
  ],
  "bytecode": "0x6080604052600060045534801561001557600080fd5b50336000806101000a81548173ffffffffffffffffffffffffffffffffffffffff021916908373ffffffffffffffffffffffffffffffffffffffff1602179055506000809054906101000a900473ffffffffffffffffffffffffffffffffffffffff1673ffffffffffffffffffffffffffffffffffffffff16600073ffffffffffffffffffffffffffffffffffffffff167f342827c97908e5e2f71151c08502a66d44b6f758e3ac2f1de95f02eb95f0a73560405160405180910390a360013390806001815401808255809150509060018203906000526020600020016000909192909190916101000a81548173ffffffffffffffffffffffffffffffffffffffff021916908373ffffffffffffffffffffffffffffffffffffffff1602179055505060036002819055506002600381905550610f14806101576000396000f3fe6080604052600436106100a75760003560e01c80638b7afe2e116100645780638b7afe2e1461026c578063a0e67e2b14610297578063a6f9dae114610303578063aa5fc79414610354578063c8f781c2146103af578063ce757d29146103b9576100a7565b8063025e7c27146100ac578063113f792e146101275780636c604072146101525780637065cb481461017d578063767e0b9c146101ce578063893d20e814610215575b600080fd5b3480156100b857600080fd5b506100e5600480360360208110156100cf57600080fd5b81019080803590602001909291905050506103e4565b604051808273ffffffffffffffffffffffffffffffffffffffff1673ffffffffffffffffffffffffffffffffffffffff16815260200191505060405180910390f35b34801561013357600080fd5b5061013c610420565b6040518082815260200191505060405180910390f35b34801561015e57600080fd5b50610167610426565b6040518082815260200191505060405180910390f35b34801561018957600080fd5b506101cc600480360360208110156101a057600080fd5b81019080803573ffffffffffffffffffffffffffffffffffffffff169060200190929190505050610430565b005b3480156101da57600080fd5b50610213600480360360408110156101f157600080fd5b8101908080359060200190929190803515159060200190929190505050610673565b005b34801561022157600080fd5b5061022a6108e3565b604051808273ffffffffffffffffffffffffffffffffffffffff1673ffffffffffffffffffffffffffffffffffffffff16815260200191505060405180910390f35b34801561027857600080fd5b5061028161090c565b6040518082815260200191505060405180910390f35b3480156102a357600080fd5b506102ac610912565b6040518080602001828103825283818151815260200191508051906020019060200280838360005b838110156102ef5780820151818401526020810190506102d4565b505050509050019250505060405180910390f35b34801561030f57600080fd5b506103526004803603602081101561032657600080fd5b81019080803573ffffffffffffffffffffffffffffffffffffffff1690602001909291905050506109a0565b005b34801561036057600080fd5b506103ad6004803603604081101561037757600080fd5b81019080803573ffffffffffffffffffffffffffffffffffffffff16906020019092919080359060200190929190505050610b20565b005b6103b7610d32565b005b3480156103c557600080fd5b506103ce610d92565b6040518082815260200191505060405180910390f35b600181815481106103f157fe5b906000526020600020016000915054906101000a900473ffffffffffffffffffffffffffffffffffffffff1681565b60025481565b6000600254905090565b6000809054906101000a900473ffffffffffffffffffffffffffffffffffffffff1673ffffffffffffffffffffffffffffffffffffffff163373ffffffffffffffffffffffffffffffffffffffff16146104f2576040517f08c379a00000000000000000000000000000000000000000000000000000000081526004018080602001828103825260138152602001807f43616c6c6572206973206e6f74206f776e65720000000000000000000000000081525060200191505060405180910390fd5b600254600180549050116106075760018190806001815401808255809150509060018203906000526020600020016000909192909190916101000a81548173ffffffffffffffffffffffffffffffffffffffff021916908373ffffffffffffffffffffffffffffffffffffffff160217905550507f14aa0e78e59adc419b134e65b6ddfa2108cf5bb07c5346e7aa5b16444c5cfc0d81604051808273ffffffffffffffffffffffffffffffffffffffff1673ffffffffffffffffffffffffffffffffffffffff16815260200180602001828103825260188152602001807f5375636365737366756c6c79206164646564206f776e657200000000000000008152506020019250505060405180910390a1610670565b7fdea4758b676a229b5984130e7d6ca333c9319c61a58697e64d6d9ea98325ff256040518080602001828103825260208152602001807f4c696d6974206f66206f776e65727320686173206265656e207265616368656481525060200191505060405180910390a15b50565b60008090506000600190505b600180549050811015610709573373ffffffffffffffffffffffffffffffffffffffff16600182815481106106b057fe5b9060005260206000200160009054906101000a900473ffffffffffffffffffffffffffffffffffffffff1673ffffffffffffffffffffffffffffffffffffffff1614156106fc57600191505b808060010191505061067f565b5081600660003373ffffffffffffffffffffffffffffffffffffffff1673ffffffffffffffffffffffffffffffffffffffff168152602001908152602001600020600085815260200190815260200160002060006101000a81548160ff0219169083151502179055506005838154811061077f57fe5b906000526020600020906004020160030160008154809291906001019190505550600354600584815481106107b057fe5b90600052602060002090600402016003015410610875577f79ca210d60fa3a3278ee96057c4a73ce31a23b52eed2112fad4a3098bc8b63a8838360405180838152602001821515151581526020019250505060405180910390a16108706005848154811061081a57fe5b906000526020600020906004020160010160009054906101000a900473ffffffffffffffffffffffffffffffffffffffff166005858154811061085957fe5b906000526020600020906004020160020154610d98565b6108de565b7fc4c49bddb83184bd7b21fb1971c9eeb31f06fe758e57fe7aeaec11805b3e6ab66040518080602001828103825260188152602001807f4d6f7265207369676e617475726573207265717569726564000000000000000081525060200191505060405180910390a15b505050565b60008060009054906101000a900473ffffffffffffffffffffffffffffffffffffffff16905090565b60045481565b6060600180548060200260200160405190810160405280929190818152602001828054801561099657602002820191906000526020600020905b8160009054906101000a900473ffffffffffffffffffffffffffffffffffffffff1673ffffffffffffffffffffffffffffffffffffffff168152602001906001019080831161094c575b5050505050905090565b6000809054906101000a900473ffffffffffffffffffffffffffffffffffffffff1673ffffffffffffffffffffffffffffffffffffffff163373ffffffffffffffffffffffffffffffffffffffff1614610a62576040517f08c379a00000000000000000000000000000000000000000000000000000000081526004018080602001828103825260138152602001807f43616c6c6572206973206e6f74206f776e65720000000000000000000000000081525060200191505060405180910390fd5b8073ffffffffffffffffffffffffffffffffffffffff166000809054906101000a900473ffffffffffffffffffffffffffffffffffffffff1673ffffffffffffffffffffffffffffffffffffffff167f342827c97908e5e2f71151c08502a66d44b6f758e3ac2f1de95f02eb95f0a73560405160405180910390a3806000806101000a81548173ffffffffffffffffffffffffffffffffffffffff021916908373ffffffffffffffffffffffffffffffffffffffff16021790555050565b60008090506000600190505b600180549050811015610bb6573373ffffffffffffffffffffffffffffffffffffffff1660018281548110610b5d57fe5b9060005260206000200160009054906101000a900473ffffffffffffffffffffffffffffffffffffffff1673ffffffffffffffffffffffffffffffffffffffff161415610ba957600191505b8080600101915050610b2c565b506005604051806080016040528060058054905081526020018573ffffffffffffffffffffffffffffffffffffffff1681526020018481526020016000815250908060018154018082558091505090600182039060005260206000209060040201600090919290919091506000820151816000015560208201518160010160006101000a81548173ffffffffffffffffffffffffffffffffffffffff021916908373ffffffffffffffffffffffffffffffffffffffff16021790555060408201518160020155606082015181600301555050507f6da0e3902522d81ccc029e67b0da22e76808ed732eb08ff696557395ffd1b88b8383604051808373ffffffffffffffffffffffffffffffffffffffff1673ffffffffffffffffffffffffffffffffffffffff168152602001828152602001806020018281038252601b8152602001807f5472616e736665722072657175657374207375636365737366756c0000000000815250602001935050505060405180910390a1505050565b346004600082825401925050819055503073ffffffffffffffffffffffffffffffffffffffff167f6e175c570db515c41ac78ed86d630ce972150c1411fdc1a64be85b2e776b4732346040518082815260200191505060405180910390a2565b60035481565b80471015610e0e576040517f08c379a00000000000000000000000000000000000000000000000000000000081526004018080602001828103825260148152602001807f496e73756666696369656e742062616c616e636500000000000000000000000081525060200191505060405180910390fd5b8060046000828254039250508190555060004790508273ffffffffffffffffffffffffffffffffffffffff166108fc839081150290604051600060405180830381858888f19350505050158015610e69573d6000803e3d6000fd5b508273ffffffffffffffffffffffffffffffffffffffff163073ffffffffffffffffffffffffffffffffffffffff167f50bdf590d0fc625b253b2417ddd30e74dfd6bbb1b7ed20f863ca2e0722ec4de5846040518082815260200191505060405180910390a38181034714610eda57fe5b50505056fea265627a7a72315820e5257d3a41b9e9232b95a3766d2e51ac6c4788de2307f29495f181703b3b6f6c64736f6c63430005100032",
  "source": "// SPDX-License-Identifier: UNLICENCED\n\npragma solidity >=0.5.0 <0.9.0;\n// pragma experimental ABIEncoderV2;\n\nimport \"./Owner.sol\";\n\n/**\n * @title MultisigWallet\n * @dev Shaun Lindsley\n */\ncontract MultisigWallet is Owner {\n    uint256 public addressLimit;\n    uint public signaturesRequired;\n    uint public contractBalance = 0;\n\n    struct Transfer {\n        uint id;\n        address payable recipient;\n        uint amount;\n        uint approvalCount;\n    }\n\n    Transfer[] transferRequests;\n    mapping(address => mapping(uint => bool)) approvals;\n\n    constructor() public {\n        // owners[] defaults to containing msg.sender\n        owners.push(msg.sender);\n        //  Address limit defaults to 3\n        addressLimit = 3;\n        // Signatures required defaults to 2\n        signaturesRequired = 2;\n    }\n\n    // Events\n    event addOwnerComplete(address owner, string message);\n    event tooManyOwners(string message);\n    event depositComplete(uint amount, address indexed depositedTo);\n    event transferRequestComplete(address to, uint amount, string message);\n    event requestApproved(uint transferId, bool approved);\n    event moreSignaturesRequired(string message);\n    event transferComplete(address indexed from, address indexed to, uint amount);\n\n    // Add owner function\n    function addOwner(address newOwner) public isOwner {\n        if (owners.length <= addressLimit) {\n            owners.push(newOwner); \n            emit addOwnerComplete(newOwner, \"Successfully added owner\"); \n        } else {\n            emit tooManyOwners(\"Limit of owners has been reached\");\n        }\n    }\n\n    // Deposit to contract function\n    function depositToContract() public payable {\n        contractBalance += msg.value;\n        emit depositComplete(msg.value, address(this));\n    }\n\n    // Request transfer function\n    function requestTransfer(address payable recipient, uint amount) public onlyOwners {\n        transferRequests.push(Transfer(transferRequests.length, recipient, amount, 0));\n        emit transferRequestComplete(recipient, amount, \"Transfer request successful\");\n    }\n\n    // Approve request function\n    function approveRequest(uint transferId, bool approved) public onlyOwners {\n        approvals[msg.sender][transferId] = approved;\n        transferRequests[transferId].approvalCount++;\n\n        if (transferRequests[transferId].approvalCount >= signaturesRequired) {\n            emit requestApproved(transferId, approved);\n            _transfer(transferRequests[transferId].recipient, transferRequests[transferId].amount);\n        } else {\n            emit moreSignaturesRequired(\"More signatures required\");\n        }\n    }\n\n    // Transfer function\n    function _transfer(address payable recipient, uint amount) private {\n        require(address(this).balance >= amount, \"Insufficient balance\");\n        contractBalance -= amount;\n        uint previousContractBalance = address(this).balance;\n        recipient.transfer(amount);\n        emit transferComplete(address(this), recipient, amount);\n        assert(address(this).balance == previousContractBalance - amount);\n    }\n\n    function getAddressLimit() external view returns (uint) {\n        return addressLimit;\n    }\n}",
  "sourcePath": "/Users/shaunlindsley/Desktop/coding/moralis-academy-courses/multisig_wallet/src/contracts/MultisigWallet.sol",
  "compiler": {
    "name": "solc",
    "version": "0.5.16+commit.9c3226ce.Emscripten.clang"
  },
  "schemaVersion": "3.4.14",
  "updatedAt": "2023-07-13T12:53:03.465Z",
  "networkType": "ethereum",
  "devdoc": {
    "details": "Shaun Lindsley",
    "methods": {},
    "title": "MultisigWallet"
  },
  "userdoc": {
    "methods": {}
  }
}