{
  "contractName": "Owner",
  "abi": [
    {
      "inputs": [],
      "payable": false,
      "stateMutability": "nonpayable",
      "type": "constructor"
    },
    {
      "anonymous": false,
      "inputs": [
        {
          "indexed": true,
          "internalType": "address",
          "name": "oldOwner",
          "type": "address"
        },
        {
          "indexed": true,
          "internalType": "address",
          "name": "newOwner",
          "type": "address"
        }
      ],
      "name": "OwnerSet",
      "type": "event"
    },
    {
      "constant": true,
      "inputs": [
        {
          "internalType": "uint256",
          "name": "",
          "type": "uint256"
        }
      ],
      "name": "owners",
      "outputs": [
        {
          "internalType": "address",
          "name": "",
          "type": "address"
        }
      ],
      "payable": false,
      "stateMutability": "view",
      "type": "function"
    },
    {
      "constant": false,
      "inputs": [
        {
          "internalType": "address",
          "name": "newOwner",
          "type": "address"
        }
      ],
      "name": "changeOwner",
      "outputs": [],
      "payable": false,
      "stateMutability": "nonpayable",
      "type": "function"
    },
    {
      "constant": true,
      "inputs": [],
      "name": "getOwner",
      "outputs": [
        {
          "internalType": "address",
          "name": "",
          "type": "address"
        }
      ],
      "payable": false,
      "stateMutability": "view",
      "type": "function"
    }
  ],
  "bytecode": "0x608060405234801561001057600080fd5b50336000806101000a81548173ffffffffffffffffffffffffffffffffffffffff021916908373ffffffffffffffffffffffffffffffffffffffff1602179055506000809054906101000a900473ffffffffffffffffffffffffffffffffffffffff1673ffffffffffffffffffffffffffffffffffffffff16600073ffffffffffffffffffffffffffffffffffffffff167f342827c97908e5e2f71151c08502a66d44b6f758e3ac2f1de95f02eb95f0a73560405160405180910390a361035c806100dc6000396000f3fe608060405234801561001057600080fd5b50600436106100415760003560e01c8063025e7c2714610046578063893d20e8146100b4578063a6f9dae1146100fe575b600080fd5b6100726004803603602081101561005c57600080fd5b8101908080359060200190929190505050610142565b604051808273ffffffffffffffffffffffffffffffffffffffff1673ffffffffffffffffffffffffffffffffffffffff16815260200191505060405180910390f35b6100bc61017e565b604051808273ffffffffffffffffffffffffffffffffffffffff1673ffffffffffffffffffffffffffffffffffffffff16815260200191505060405180910390f35b6101406004803603602081101561011457600080fd5b81019080803573ffffffffffffffffffffffffffffffffffffffff1690602001909291905050506101a7565b005b6001818154811061014f57fe5b906000526020600020016000915054906101000a900473ffffffffffffffffffffffffffffffffffffffff1681565b60008060009054906101000a900473ffffffffffffffffffffffffffffffffffffffff16905090565b6000809054906101000a900473ffffffffffffffffffffffffffffffffffffffff1673ffffffffffffffffffffffffffffffffffffffff163373ffffffffffffffffffffffffffffffffffffffff1614610269576040517f08c379a00000000000000000000000000000000000000000000000000000000081526004018080602001828103825260138152602001807f43616c6c6572206973206e6f74206f776e65720000000000000000000000000081525060200191505060405180910390fd5b8073ffffffffffffffffffffffffffffffffffffffff166000809054906101000a900473ffffffffffffffffffffffffffffffffffffffff1673ffffffffffffffffffffffffffffffffffffffff167f342827c97908e5e2f71151c08502a66d44b6f758e3ac2f1de95f02eb95f0a73560405160405180910390a3806000806101000a81548173ffffffffffffffffffffffffffffffffffffffff021916908373ffffffffffffffffffffffffffffffffffffffff1602179055505056fea265627a7a72315820204b310eb3c2d9f0fdbf78ac3e17e4c8b58b49a15bb448b688c36664e42021a164736f6c63430005100032",
  "source": "// SPDX-License-Identifier: UNLICENCED\n\npragma solidity >=0.5.0 <0.9.0;\n\n/**\n * @title Owner\n * @dev Shaun Lindsley\n */\ncontract Owner {\n\n    address private owner;\n    address[] public owners;\n\n    // event for EVM logging\n    event OwnerSet(address indexed oldOwner, address indexed newOwner);\n\n    // modifier to check if caller is owner\n    modifier isOwner() {\n        require(msg.sender == owner, \"Caller is not owner\");\n        _;\n    }\n    \n    // modifier to check if caller is owner\n    modifier onlyOwners() {\n        bool contractOwner = false;\n        for (uint256 i = 1; i<owners.length; i++) {\n            if (owners[i] == msg.sender) {\n                contractOwner = true;\n            }\n        }\n        _;\n    }\n\n    /**\n     * @dev Set contract deployer as owner\n     */\n    constructor() public {\n        owner = msg.sender; // 'msg.sender' is sender of current call, contract deployer for a constructor\n        emit OwnerSet(address(0), owner);\n    }\n\n    /**\n     * @dev Change owner\n     * @param newOwner address of new owner\n     */\n    function changeOwner(address newOwner) public isOwner {\n        emit OwnerSet(owner, newOwner);\n        owner = newOwner;\n    }\n\n    /**\n     * @dev Return owner address \n     * @return address of owner\n     */\n    function getOwner() external view returns (address) {\n        return owner;\n    }\n} ",
  "sourcePath": "/Users/shaunlindsley/Desktop/coding/moralis-academy-courses/multisig_wallet/src/contracts/Owner.sol",
  "compiler": {
    "name": "solc",
    "version": "0.5.16+commit.9c3226ce.Emscripten.clang"
  },
  "schemaVersion": "3.4.14",
  "updatedAt": "2023-07-11T18:01:46.020Z",
  "devdoc": {
    "details": "Shaun Lindsley",
    "methods": {
      "changeOwner(address)": {
        "details": "Change owner",
        "params": {
          "newOwner": "address of new owner"
        }
      },
      "constructor": {
        "details": "Set contract deployer as owner"
      },
      "getOwner()": {
        "details": "Return owner address ",
        "return": "address of owner"
      }
    },
    "title": "Owner"
  },
  "userdoc": {
    "methods": {}
  }
}