{
  "contractName": "MultisigWallet",
  "abi": [
    {
      "inputs": [],
      "stateMutability": "nonpayable",
      "type": "constructor"
    },
    {
      "anonymous": false,
      "inputs": [
        {
          "indexed": true,
          "internalType": "address",
          "name": "oldOwner",
          "type": "address"
        },
        {
          "indexed": true,
          "internalType": "address",
          "name": "newOwner",
          "type": "address"
        }
      ],
      "name": "OwnerSet",
      "type": "event"
    },
    {
      "anonymous": false,
      "inputs": [
        {
          "indexed": false,
          "internalType": "address",
          "name": "owner",
          "type": "address"
        }
      ],
      "name": "addOwnerComplete",
      "type": "event"
    },
    {
      "anonymous": false,
      "inputs": [],
      "name": "deleteOwnerComplete",
      "type": "event"
    },
    {
      "anonymous": false,
      "inputs": [
        {
          "indexed": false,
          "internalType": "uint256",
          "name": "amount",
          "type": "uint256"
        },
        {
          "indexed": true,
          "internalType": "address",
          "name": "depositedTo",
          "type": "address"
        }
      ],
      "name": "depositComplete",
      "type": "event"
    },
    {
      "anonymous": false,
      "inputs": [
        {
          "indexed": false,
          "internalType": "uint256",
          "name": "transferId",
          "type": "uint256"
        }
      ],
      "name": "requestApproved",
      "type": "event"
    },
    {
      "anonymous": false,
      "inputs": [
        {
          "indexed": true,
          "internalType": "address",
          "name": "from",
          "type": "address"
        },
        {
          "indexed": true,
          "internalType": "address",
          "name": "to",
          "type": "address"
        },
        {
          "indexed": false,
          "internalType": "uint256",
          "name": "amount",
          "type": "uint256"
        }
      ],
      "name": "transferComplete",
      "type": "event"
    },
    {
      "anonymous": false,
      "inputs": [
        {
          "indexed": false,
          "internalType": "address",
          "name": "to",
          "type": "address"
        },
        {
          "indexed": false,
          "internalType": "uint256",
          "name": "amount",
          "type": "uint256"
        }
      ],
      "name": "transferRequestComplete",
      "type": "event"
    },
    {
      "inputs": [],
      "name": "addressLimit",
      "outputs": [
        {
          "internalType": "uint256",
          "name": "",
          "type": "uint256"
        }
      ],
      "stateMutability": "view",
      "type": "function",
      "constant": true
    },
    {
      "inputs": [
        {
          "internalType": "address",
          "name": "",
          "type": "address"
        },
        {
          "internalType": "uint256",
          "name": "",
          "type": "uint256"
        }
      ],
      "name": "approvals",
      "outputs": [
        {
          "internalType": "bool",
          "name": "",
          "type": "bool"
        }
      ],
      "stateMutability": "view",
      "type": "function",
      "constant": true
    },
    {
      "inputs": [
        {
          "internalType": "address",
          "name": "newOwner",
          "type": "address"
        }
      ],
      "name": "changeOwner",
      "outputs": [],
      "stateMutability": "nonpayable",
      "type": "function"
    },
    {
      "inputs": [],
      "name": "contractBalance",
      "outputs": [
        {
          "internalType": "uint256",
          "name": "",
          "type": "uint256"
        }
      ],
      "stateMutability": "view",
      "type": "function",
      "constant": true
    },
    {
      "inputs": [],
      "name": "getOwner",
      "outputs": [
        {
          "internalType": "address",
          "name": "",
          "type": "address"
        }
      ],
      "stateMutability": "view",
      "type": "function",
      "constant": true
    },
    {
      "inputs": [],
      "name": "getOwners",
      "outputs": [
        {
          "internalType": "address[]",
          "name": "",
          "type": "address[]"
        }
      ],
      "stateMutability": "view",
      "type": "function",
      "constant": true
    },
    {
      "inputs": [
        {
          "internalType": "uint256",
          "name": "",
          "type": "uint256"
        }
      ],
      "name": "owners",
      "outputs": [
        {
          "internalType": "address",
          "name": "",
          "type": "address"
        }
      ],
      "stateMutability": "view",
      "type": "function",
      "constant": true
    },
    {
      "inputs": [],
      "name": "signaturesRequired",
      "outputs": [
        {
          "internalType": "uint256",
          "name": "",
          "type": "uint256"
        }
      ],
      "stateMutability": "view",
      "type": "function",
      "constant": true
    },
    {
      "inputs": [
        {
          "internalType": "uint256",
          "name": "",
          "type": "uint256"
        }
      ],
      "name": "transferRequests",
      "outputs": [
        {
          "internalType": "uint256",
          "name": "id",
          "type": "uint256"
        },
        {
          "internalType": "address payable",
          "name": "recipient",
          "type": "address"
        },
        {
          "internalType": "uint256",
          "name": "amount",
          "type": "uint256"
        },
        {
          "internalType": "uint256",
          "name": "approvalCount",
          "type": "uint256"
        }
      ],
      "stateMutability": "view",
      "type": "function",
      "constant": true
    },
    {
      "inputs": [
        {
          "internalType": "address",
          "name": "newOwner",
          "type": "address"
        }
      ],
      "name": "addOwner",
      "outputs": [],
      "stateMutability": "nonpayable",
      "type": "function"
    },
    {
      "inputs": [
        {
          "internalType": "uint256",
          "name": "index",
          "type": "uint256"
        }
      ],
      "name": "deleteOwner",
      "outputs": [],
      "stateMutability": "nonpayable",
      "type": "function"
    },
    {
      "inputs": [],
      "name": "depositToContract",
      "outputs": [],
      "stateMutability": "payable",
      "type": "function",
      "payable": true
    },
    {
      "inputs": [
        {
          "internalType": "address payable",
          "name": "recipient",
          "type": "address"
        },
        {
          "internalType": "uint256",
          "name": "amount",
          "type": "uint256"
        }
      ],
      "name": "requestTransfer",
      "outputs": [],
      "stateMutability": "nonpayable",
      "type": "function"
    },
    {
      "inputs": [
        {
          "internalType": "uint256",
          "name": "transferId",
          "type": "uint256"
        },
        {
          "internalType": "bool",
          "name": "approved",
          "type": "bool"
        }
      ],
      "name": "approveRequest",
      "outputs": [],
      "stateMutability": "nonpayable",
      "type": "function"
    },
    {
      "inputs": [],
      "name": "getTransferRequests",
      "outputs": [
        {
          "components": [
            {
              "internalType": "uint256",
              "name": "id",
              "type": "uint256"
            },
            {
              "internalType": "address payable",
              "name": "recipient",
              "type": "address"
            },
            {
              "internalType": "uint256",
              "name": "amount",
              "type": "uint256"
            },
            {
              "internalType": "uint256",
              "name": "approvalCount",
              "type": "uint256"
            }
          ],
          "internalType": "struct MultisigWallet.Transfer[]",
          "name": "",
          "type": "tuple[]"
        }
      ],
      "stateMutability": "view",
      "type": "function",
      "constant": true
    },
    {
      "inputs": [
        {
          "internalType": "address",
          "name": "account",
          "type": "address"
        },
        {
          "internalType": "uint256",
          "name": "transferId",
          "type": "uint256"
        }
      ],
      "name": "getApproval",
      "outputs": [
        {
          "internalType": "bool",
          "name": "",
          "type": "bool"
        }
      ],
      "stateMutability": "view",
      "type": "function",
      "constant": true
    }
  ],
  "bytecode": "0x6080604052600060045534801561001557600080fd5b50600080546001600160a01b03191633178082556040516001600160a01b039190911691907f342827c97908e5e2f71151c08502a66d44b6f758e3ac2f1de95f02eb95f0a735908290a36001805480820182556000919091527fb10e2d527612073b26eecdfd717e6a320cf44b4afac2b0732d9fcbe2b7fa0cf60180546001600160a01b03191633179055600360028181559055610f24806100b86000396000f3fe6080604052600436106100f35760003560e01c8063a04ef1451161008a578063c57d3d9e11610059578063c57d3d9e14610290578063c8f781c2146102bd578063ce757d29146102c5578063ffabc673146102da576100f3565b8063a04ef1451461020c578063a0e67e2b1461022e578063a6f9dae114610250578063aa5fc79414610270576100f3565b8063767e0b9c116100c6578063767e0b9c146101a2578063780dd0cf146101c2578063893d20e8146101e25780638b7afe2e146101f7576100f3565b8063025e7c27146100f857806303486c401461012e578063113f792e1461015e5780637065cb4814610180575b600080fd5b34801561010457600080fd5b50610118610113366004610c28565b6102fa565b6040516101259190610c76565b60405180910390f35b34801561013a57600080fd5b5061014e610149366004610c28565b610321565b6040516101259493929190610eb5565b34801561016a57600080fd5b50610173610361565b6040516101259190610eac565b34801561018c57600080fd5b506101a061019b366004610bc8565b610367565b005b3480156101ae57600080fd5b506101a06101bd366004610c40565b6104a2565b3480156101ce57600080fd5b506101a06101dd366004610c28565b61063e565b3480156101ee57600080fd5b5061011861071f565b34801561020357600080fd5b5061017361072e565b34801561021857600080fd5b50610221610734565b6040516101259190610cf0565b34801561023a57600080fd5b506102436107be565b6040516101259190610ca3565b34801561025c57600080fd5b506101a061026b366004610bc8565b610820565b34801561027c57600080fd5b506101a061028b366004610beb565b6108ce565b34801561029c57600080fd5b506102b06102ab366004610c16565b610a44565b6040516101259190610d5d565b6101a0610a6f565b3480156102d157600080fd5b50610173610ab5565b3480156102e657600080fd5b506102b06102f5366004610c16565b610abb565b6001818154811061030757fe5b6000918252602090912001546001600160a01b0316905081565b6005818154811061032e57fe5b600091825260209091206004909102018054600182015460028301546003909301549193506001600160a01b0316919084565b60025481565b6000546001600160a01b0316331461039a5760405162461bcd60e51b815260040161039190610dd8565b60405180910390fd5b600254600154106103bd5760405162461bcd60e51b815260040161039190610e33565b60005b60015481101561041c57816001600160a01b0316600182815481106103e157fe5b6000918252602090912001546001600160a01b031614156104145760405162461bcd60e51b815260040161039190610daa565b6001016103c0565b506001805480820182556000919091527fb10e2d527612073b26eecdfd717e6a320cf44b4afac2b0732d9fcbe2b7fa0cf60180546001600160a01b0319166001600160a01b0383161790556040517f4363a780bc3854ff51ca797208525f12893b736753296d54389e5a6a1018291d90610497908390610c76565b60405180910390a150565b600060015b6001548110156104f057336001600160a01b0316600182815481106104c857fe5b6000918252602090912001546001600160a01b031614156104e857600191505b6001016104a7565b5033600090815260066020908152604080832086845290915290205460ff161515600114156105315760405162461bcd60e51b815260040161039190610e68565b3360009081526006602090815260408083208684529091529020805460ff1916831515179055600580548490811061056557fe5b60009182526020909120600360049092020101805460010190556040517f384f2c097498f4210684a5fd89f2cf1862f58a71381bbe7f7e655ce92f5353e5906105af908590610eac565b60405180910390a1600354600584815481106105c757fe5b9060005260206000209060040201600301541061063957610637600584815481106105ee57fe5b906000526020600020906004020160010160009054906101000a90046001600160a01b03166005858154811061062057fe5b906000526020600020906004020160020154610adb565b505b505050565b600154811061064c5761071c565b805b600154600019018110156106c3576001816001018154811061066c57fe5b600091825260209091200154600180546001600160a01b03909216918390811061069257fe5b600091825260209091200180546001600160a01b0319166001600160a01b039290921691909117905560010161064e565b5060018054806106cf57fe5b600082815260208120820160001990810180546001600160a01b03191690559091019091556040517f64f5f285c3c2c44cf9e9368c1df51b5598360b5e68ef4eab0fc035b9b4d0505d9190a15b50565b6000546001600160a01b031690565b60045481565b60606005805480602002602001604051908101604052809291908181526020016000905b828210156107b55760008481526020908190206040805160808101825260048602909201805483526001808201546001600160a01b0316848601526002820154928401929092526003015460608301529083529092019101610758565b50505050905090565b6060600180548060200260200160405190810160405280929190818152602001828054801561081657602002820191906000526020600020905b81546001600160a01b031681526001909101906020018083116107f8575b5050505050905090565b6000546001600160a01b0316331461084a5760405162461bcd60e51b815260040161039190610dd8565b6001600160a01b0381163314156108735760405162461bcd60e51b815260040161039190610d68565b600080546040516001600160a01b03808516939216917f342827c97908e5e2f71151c08502a66d44b6f758e3ac2f1de95f02eb95f0a73591a3600080546001600160a01b0319166001600160a01b0392909216919091179055565b600060015b60015481101561091c57336001600160a01b0316600182815481106108f457fe5b6000918252602090912001546001600160a01b0316141561091457600191505b6001016108d3565b5060408051608081018252600580548083526001600160a01b038781166020850190815284860188815260006060870181815260018601875595905294517f036b6384b5eca791c62761152d0c79bb0604c104a5fb6f4eb0703f3154bb3db0600490940293840155517f036b6384b5eca791c62761152d0c79bb0604c104a5fb6f4eb0703f3154bb3db1830180546001600160a01b0319169190921617905591517f036b6384b5eca791c62761152d0c79bb0604c104a5fb6f4eb0703f3154bb3db2830155517f036b6384b5eca791c62761152d0c79bb0604c104a5fb6f4eb0703f3154bb3db390910155517f534e324332c9a36269109dc257e29f11c5d0f5cbe362e901b19c0dca2f1bd5fd90610a379085908590610c8a565b60405180910390a1505050565b6001600160a01b03919091166000908152600660209081526040808320938352929052205460ff1690565b600480543490810190915560405130917f6e175c570db515c41ac78ed86d630ce972150c1411fdc1a64be85b2e776b473291610aab9190610eac565b60405180910390a2565b60035481565b600660209081526000928352604080842090915290825290205460ff1681565b600081471015610afd5760405162461bcd60e51b815260040161039190610e05565b60048054839003905560405147906000906001600160a01b038616908590610b2490610c73565b60006040518083038185875af1925050503d8060008114610b61576040519150601f19603f3d011682016040523d82523d6000602084013e610b66565b606091505b50509050846001600160a01b0316306001600160a01b03167f50bdf590d0fc625b253b2417ddd30e74dfd6bbb1b7ed20f863ca2e0722ec4de586604051610bad9190610eac565b60405180910390a38382034714610bc057fe5b949350505050565b600060208284031215610bd9578081fd5b8135610be481610ed9565b9392505050565b60008060408385031215610bfd578081fd5b8235610c0881610ed9565b946020939093013593505050565b60008060408385031215610bfd578182fd5b600060208284031215610c39578081fd5b5035919050565b60008060408385031215610c52578182fd5b8235915060208301358015158114610c68578182fd5b809150509250929050565b90565b6001600160a01b0391909116815260200190565b6001600160a01b03929092168252602082015260400190565b6020808252825182820181905260009190848201906040850190845b81811015610ce45783516001600160a01b031683529284019291840191600101610cbf565b50909695505050505050565b602080825282518282018190526000919060409081850190868401855b82811015610d5057815180518552868101516001600160a01b03168786015285810151868601526060908101519085015260809093019290850190600101610d0d565b5091979650505050505050565b901515815260200190565b60208082526022908201527f596f752061726520616c72656164792074686520636f6e7472616374206f776e60408201526132b960f11b606082015260800190565b6020808252601490820152734f776e657220616c72656164792065786973747360601b604082015260600190565b60208082526013908201527221b0b63632b91034b9903737ba1037bbb732b960691b604082015260600190565b602080825260149082015273496e73756666696369656e742062616c616e636560601b604082015260600190565b6020808252818101527f4c696d6974206f66206f776e65727320686173206265656e2072656163686564604082015260600190565b60208082526024908201527f43616e277420617070726f76652073616d65207472616e73616374696f6e20746040820152637769636560e01b606082015260800190565b90815260200190565b9384526001600160a01b039290921660208401526040830152606082015260800190565b6001600160a01b038116811461071c57600080fdfea264697066735822122064d84b6acf48f8a58299beed3aa631bf8a81233c1f7180de8271c6f4650a78f364736f6c63430007000033",
  "immutableReferences": {},
  "source": "// SPDX-License-Identifier: UNLICENCED\n\npragma solidity >=0.5.0 <0.9.0;\npragma experimental ABIEncoderV2;\n\nimport \"./Owner.sol\";\ncontract MultisigWallet is Owner {\n    uint256 public addressLimit;\n    uint public signaturesRequired;\n    uint public contractBalance = 0;\n\n    struct Transfer {\n        uint id;\n        address payable recipient;\n        uint amount;\n        uint approvalCount;\n    }\n\n    Transfer[] public transferRequests;\n    mapping(address => mapping(uint => bool)) public approvals;\n\n    constructor() {\n        // owners[] defaults to containing msg.sender\n        owners.push(msg.sender);\n        //  Address limit defaults to 3\n        addressLimit = 3;\n        // Signatures required defaults to 2\n        signaturesRequired = 2;\n    }\n\n    // Events\n    event addOwnerComplete(address owner);\n    event deleteOwnerComplete();\n    event depositComplete(uint amount, address indexed depositedTo);\n    event transferRequestComplete(address to, uint amount);\n    event requestApproved(uint transferId);\n    event transferComplete(address indexed from, address indexed to, uint amount);\n\n    // Add owner function\n    function addOwner(address newOwner) public isOwner {\n        require(owners.length < addressLimit, \"Limit of owners has been reached\");\n        for (uint256 i=0; i<owners.length; i++) {\n            require(owners[i] != newOwner, \"Owner already exists\");\n        }\n        owners.push(newOwner); \n        emit addOwnerComplete(newOwner); \n    }\n\n    // Delete owner\n    function deleteOwner(uint index) public {\n        if (index >= owners.length) return;\n        for (uint i = index; i<owners.length-1; i++){\n            owners[i] = owners[i+1];\n        }\n        owners.pop();\n        emit deleteOwnerComplete(); \n    }\n\n    // Deposit to contract function\n    function depositToContract() public payable {\n        contractBalance += msg.value;\n        emit depositComplete(msg.value, address(this));\n    }\n\n    // Request transfer function\n    function requestTransfer(address payable recipient, uint amount) public onlyOwners {\n        transferRequests.push(Transfer(transferRequests.length, recipient, amount, 0));\n        emit transferRequestComplete(recipient, amount);\n    }\n\n    // Approve request function\n    function approveRequest(uint transferId, bool approved) public onlyOwners {\n        require(approvals[msg.sender][transferId] != true, \"Can't approve same transaction twice\");\n        approvals[msg.sender][transferId] = approved;\n        transferRequests[transferId].approvalCount++;\n        emit requestApproved(transferId);\n\n        if (transferRequests[transferId].approvalCount >= signaturesRequired) {\n            _transfer(transferRequests[transferId].recipient, transferRequests[transferId].amount);\n        }\n    }\n\n    // Transfer function\n    function _transfer(address payable recipient, uint amount) private returns(bool) {\n        require(address(this).balance >= amount, \"Insufficient balance\");\n        contractBalance -= amount;\n        uint previousContractBalance = address(this).balance;\n        (bool success,) = recipient.call{value: amount}(\"\");\n        emit transferComplete(address(this), recipient, amount);\n        assert(address(this).balance == previousContractBalance - amount);\n        return success;\n    }\n\n    function getTransferRequests() public view returns(Transfer[] memory) {\n        return transferRequests;\n    }\n\n    function getApproval(address account,uint transferId) public view returns(bool) {\n        return approvals[account][transferId];\n    }\n}",
  "sourcePath": "/Users/shaunlindsley/Desktop/coding/moralis-academy-courses/multisig_wallet/src/contracts/MultisigWallet.sol",
  "compiler": {
    "name": "solc",
    "version": "0.7.0+commit.9e61f92b.Emscripten.clang"
  },
  "schemaVersion": "3.4.14",
  "updatedAt": "2023-07-24T11:51:26.245Z",
  "networkType": "ethereum",
  "devdoc": {
    "kind": "dev",
    "methods": {},
    "version": 1
  },
  "userdoc": {
    "kind": "user",
    "methods": {},
    "version": 1
  }
}