{
  "contractName": "Owner",
  "abi": [
    {
      "inputs": [],
      "stateMutability": "nonpayable",
      "type": "constructor"
    },
    {
      "anonymous": false,
      "inputs": [
        {
          "indexed": true,
          "internalType": "address",
          "name": "oldOwner",
          "type": "address"
        },
        {
          "indexed": true,
          "internalType": "address",
          "name": "newOwner",
          "type": "address"
        }
      ],
      "name": "OwnerSet",
      "type": "event"
    },
    {
      "inputs": [
        {
          "internalType": "uint256",
          "name": "",
          "type": "uint256"
        }
      ],
      "name": "owners",
      "outputs": [
        {
          "internalType": "address",
          "name": "",
          "type": "address"
        }
      ],
      "stateMutability": "view",
      "type": "function"
    },
    {
      "inputs": [
        {
          "internalType": "address",
          "name": "newOwner",
          "type": "address"
        }
      ],
      "name": "changeOwner",
      "outputs": [],
      "stateMutability": "nonpayable",
      "type": "function"
    },
    {
      "inputs": [],
      "name": "getOwner",
      "outputs": [
        {
          "internalType": "address",
          "name": "",
          "type": "address"
        }
      ],
      "stateMutability": "view",
      "type": "function"
    },
    {
      "inputs": [],
      "name": "getOwners",
      "outputs": [
        {
          "internalType": "address[]",
          "name": "",
          "type": "address[]"
        }
      ],
      "stateMutability": "view",
      "type": "function"
    }
  ],
  "bytecode": "0x608060405234801561001057600080fd5b50600080546001600160a01b03191633178082556040516001600160a01b039190911691907f342827c97908e5e2f71151c08502a66d44b6f758e3ac2f1de95f02eb95f0a735908290a36102fa806100696000396000f3fe608060405234801561001057600080fd5b506004361061004c5760003560e01c8063025e7c2714610051578063893d20e81461008a578063a0e67e2b14610092578063a6f9dae1146100ea575b600080fd5b61006e6004803603602081101561006757600080fd5b5035610112565b604080516001600160a01b039092168252519081900360200190f35b61006e610139565b61009a610148565b60408051602080825283518183015283519192839290830191858101910280838360005b838110156100d65781810151838201526020016100be565b505050509050019250505060405180910390f35b6101106004803603602081101561010057600080fd5b50356001600160a01b03166101aa565b005b6001818154811061011f57fe5b6000918252602090912001546001600160a01b0316905081565b6000546001600160a01b031690565b606060018054806020026020016040519081016040528092919081815260200182805480156101a057602002820191906000526020600020905b81546001600160a01b03168152600190910190602001808311610182575b5050505050905090565b6000546001600160a01b031633146101ff576040805162461bcd60e51b815260206004820152601360248201527221b0b63632b91034b9903737ba1037bbb732b960691b604482015290519081900360640190fd5b6001600160a01b0381163314156102475760405162461bcd60e51b81526004018080602001828103825260228152602001806102a36022913960400191505060405180910390fd5b600080546040516001600160a01b03808516939216917f342827c97908e5e2f71151c08502a66d44b6f758e3ac2f1de95f02eb95f0a73591a3600080546001600160a01b0319166001600160a01b039290921691909117905556fe596f752061726520616c72656164792074686520636f6e7472616374206f776e6572a26469706673582212209e7c776e10a084e030c7923f1f7c1adf9b7e69797849599ac2cbc4f99a5664a464736f6c63430007000033",
  "immutableReferences": {},
  "source": "// SPDX-License-Identifier: UNLICENCED\n\npragma solidity >=0.5.0 <0.9.0;\n\ncontract Owner {\n    address private owner;\n    address[] public owners;\n\n    event OwnerSet(address indexed oldOwner, address indexed newOwner);\n\n    modifier isOwner() {\n        require(msg.sender == owner, \"Caller is not owner\");\n        _;\n    }\n    \n    modifier onlyOwners() {\n        bool contractOwner = false;\n        for (uint256 i = 1; i<owners.length; i++) {\n            if (owners[i] == msg.sender) {\n                contractOwner = true;\n            }\n        }\n        _;\n    }\n\n    constructor() {\n        owner = msg.sender;\n        emit OwnerSet(address(0), owner);\n    }\n\n    function changeOwner(address newOwner) public isOwner {\n        require(newOwner != msg.sender, \"You are already the contract owner\");\n        emit OwnerSet(owner, newOwner);\n        owner = newOwner;\n    }\n\n    function getOwner() external view returns (address) {\n        return owner;\n    }\n\n    function getOwners() external view returns (address[] memory) {\n        return owners;\n    }\n} ",
  "sourcePath": "/Users/shaunlindsley/Desktop/coding/moralis-academy-courses/multisig_wallet/src/contracts/Owner.sol",
  "compiler": {
    "name": "solc",
    "version": "0.7.0+commit.9e61f92b.Emscripten.clang"
  },
  "schemaVersion": "3.4.14",
  "updatedAt": "2023-08-10T18:25:11.234Z",
  "devdoc": {
    "kind": "dev",
    "methods": {},
    "version": 1
  },
  "userdoc": {
    "kind": "user",
    "methods": {},
    "version": 1
  }
}